:100000000C9401010C94C2060C949B060C9474068B
:100010000C944D060C9429010C9429010C9426068D
:100020000C9429010C9429010C94E9060C945807AE
:100030000C9429010C9429010C9429010C94290198
:100040000C9429010C9429010C9429010C94290188
:100050000C9429010C9429010C9429010C94DC05C1
:100060000C9429010C9429010C9429010C94290168
:100070000C9429010C9429010C9429010C94290158
:100080000C9429010C9429010C9429010C94290148
:100090000C9429010C9429010C9429010C94290138
:1000A0000C9429010C9429010C94290100FF0100F2
:1000B000010000FFFF0000010001FF00070605042A
:1000C0000100080A0B0C0D09080B000202020000D7
:1000D00009040000010202000005240010010524AB
:1000E000010101042402060524060001070581031D
:1000F00010004009040100020A0000000705020286
:1001000040000007058302400000040309041201B7
:100110000002EF0201404123368000010102030189
:1001200041726475696E6F204C4C43004172647576
:10013000696E6F204C656F6E6172646F0005010916
:1001400004A101850105091901291815002501756A
:1001500001951881020501093016008026FF7F7580
:100160001095018102050209C409C509C6150026BA
:10017000FF3F751095038102C00000000023002698
:100180000029002C002F0000000000240027002A76
:10019000002D00300000000000250028002B002E5C
:1001A00000310004040404040304050202020204F2
:1001B0000302020202060606060606040402020202
:1001C0000404040802011040804010204080408058
:1001D00008020401804020100201108010204040DD
:1001E000200000000200090F0000030401000C00C1
:1001F00000000000000000000000000000000000FF
:100200008A0911241FBECFEFDAE0DEBFCDBF11E0B7
:10021000A0E0B1E0E4E2FBE102C005900D92A4345D
:10022000B107D9F722E0A4E4B1E001C01D92A836DD
:10023000B207E1F711E0C1E0D1E004C02197FE016F
:100240000E943A0DC030D107C9F70E949F090C9453
:10025000900D0C940000CF93DF93FC01818190916D
:100260005B02482F490F5527551F483051059CF513
:10027000A281B381109709F527E532E03383228309
:1002800020812093590280935A0280915C02820F50
:10029000808320915D02A22FB0915E028A2F821B83
:1002A0008917E8F481813D91C82FD0E0CA5EDE4F06
:1002B00038838F5F8183F2CFD90118962D913C91BD
:1002C000199721153105C1F727E532E019963C93BE
:1002D0002E931897D5CF80E0DF91CF91089581E0DC
:1002E000FBCFFC0180915602882311F13FB7F894AF
:1002F00082E08093E9002091F200822F90E01816AE
:10030000190614F481E090E0882339F0289844E637
:10031000409355024091F1004083222339F020910F
:10032000F200211103C02BE62093E8003FBF08959F
:100330008FEF9FEF0895CF93DF931F92CDB7DEB776
:100340006983DC01ED91FC910280F381E02D41E0B5
:1003500050E0BE016F5F7F4F09950F90DF91CF9105
:10036000089583E08093E9008091F200882319F0DA
:100370008AE38093E8000895CF93DF931F92CDB76F
:10038000DEB7FC018485958597FD08C02FEF3FEF10
:10039000358724870F90DF91CF910895CE01019684
:1003A0000E947101019719F4898190E0F3CF8FEFDA
:1003B0009FEFF0CF0F931F93CF93DF931F92CDB793
:1003C000DEB78C01FC018485958597FF0BC0CE01BB
:1003D00001960E947101019771F4898190E0F80102
:1003E00095878487F801848595850F90DF91CF915B
:1003F0001F910F9108958FEF9FEFF1CFFC0184853E
:10040000958597FD0BC09FB7F89482E08093E90033
:100410008091F2009FBF90E0019608959FB7F894F5
:1004200082E08093E9008091F2009FBF90E0089500
:1004300081508F3008F047C0E82FF0E0EE5DFD4FAF
:100440000C943A0D3F024302310237023B02630231
:100450006302630246024C02500254025A026302D3
:100460005E02809180008F77809380000895809154
:1004700080008F7DF9CF80918000877FF5CF84B594
:100480008F7784BD089584B58F7DFBCF80919000D8
:100490008F77809390000895809190008F7DF9CFA1
:1004A00080919000877FF5CF8091C0008F778093F7
:1004B000C00008958091C0008F7DF9CF8091C20067
:1004C000877F8093C20008951F93CF93DF93282FD7
:1004D00030E0F901EF51FE4F8491F901EE53FE4FE8
:1004E000D491F901ED55FE4FC491CC23A9F0162FFC
:1004F00081110E941802EC2FF0E0EE0FFF1FEB5667
:10050000FE4FA591B4918FB7F894EC91111108C0EA
:10051000D095DE23DC938FBFDF91CF911F9108959B
:10052000DE2BF8CFCF93DF9390E0FC01EE53FE4F2C
:1005300024918D559E4FFC0184918823C9F090E051
:10054000880F991FFC01E957FE4FA591B491FC015A
:10055000EB56FE4FC591D49161110DC09FB7F89431
:100560008C91209582238C938881282328839FBF98
:10057000DF91CF910895623051F49FB7F8943C9188
:10058000822F809583238C93E8812E2BEFCF8FB71A
:10059000F894EC912E2B2C938FBFEACF3FB7F894B1
:1005A0008091010290910202A0910302B091040295
:1005B00026B5A89B05C02F3F19F00196A11DB11DBE
:1005C0003FBFBA2FA92F982F8827BC01CD01620FFA
:1005D000711D811D911D42E0660F771F881F991FB5
:1005E0004A95D1F70895CF92DF92EF92FF920E9441
:1005F000CE026B017C010E94CE026C197D098E092E
:100600009F09683E734081059105A8F3FF90EF9024
:10061000DF90CF900895089540915801509159016D
:10062000209156013091570142175307B4F490912D
:10063000E8009570E1F39091E80092FD19C0809375
:10064000F100809158019091590101968F7399277B
:10065000892B19F48EEF8093E800809158019091D6
:1006600059010196909359018093580181E00895B2
:1006700080E00895EF92FF920F931F93CF93DF9343
:10068000F82E192FE62E042F81E0860F880F0E9486
:100690000C0383E00E940C03CF2DD12FEC0EFD2E16
:1006A000F11CCE15DF05B9F007FF13C0FE018491E0
:1006B0000E940C03182F80E00E940C0381232196D6
:1006C0008111EFCFDF91CF911F910F91FF90EF90AC
:1006D00008958881EDCF81E0F5CFDF92EF92FF9210
:1006E0000F931F93CF93DF93D82E8A01EB017B01E9
:1006F000E40EF51ECE15DF0559F0D7FE12C0FE013F
:1007000084910E940C0321968111F4CF0FEF1FEF0B
:10071000C801DF91CF911F910F91FF90EF90DF9073
:1007200008958881EECF2FB7F89487708093E90001
:100730009091E800892F807295FF04C09091F2009B
:1007400080E4891B2FBF089583E00E94930390E00B
:1007500008957F928F929F92AF92BF92CF92DF9235
:10076000EF92FF920F931F93CF93DF93C82E8B01CD
:100770007A0180915602811110C08FEF9FEFDF91B7
:10078000CF911F910F91FF90EF90DF90CF90BF908E
:10079000AF909F908F907F90089580915C0180FF33
:1007A00005C08091E00082608093E000CE2DDF2DB7
:1007B000D12C8AEFB82E8C2D8770982E8C2D8072BC
:1007C000882E8C2D8074782E9AE3A92E209719F408
:1007D000DD2009F44EC08C2D0E949303811106C0C8
:1007E000BA94BB2051F20E94F302F0CF8C171D0681
:1007F00011F00CF08C2F9FB7F8949092E9002091A3
:10080000E80025FD02C09FBFE1CF282F30E0C21BCA
:10081000D30B882029F08150A0F01092F100FBCF7B
:10082000F801C7FC0AC0815050F041914093F1009B
:10083000FACF44914093F10031968150D0F7020FE6
:10084000131FDD2021F0A092E800D12CDCCF809195
:10085000E80085FD07C0A092E800DD24D39420972E
:1008600091F2F3CF209779F6772069F2A092E80011
:10087000CACF5D9884E680935B01C70180CFCF9398
:10088000DF93EC0180911501882331F083E00E9411
:10089000A9031816190634F081E090E09B838A833F
:1008A00080E090E0DF91CF910895615030F0209189
:1008B000F100FC0120830196F8CF289884E680930C
:1008C0005502089580914E0181110DC082E0809300
:1008D0004A0184E080934B0110924D0110924C012B
:1008E00081E080934E018AE491E008950F931F9375
:1008F000CF93DF931F92CDB7DEB782E0898342E4C6
:1009000050E068EC70E080E80E946D030E94620491
:10091000DC0112960D911C910115110589F0D80189
:10092000ED91FC910280F381E02DBE016F5F7F4F5E
:10093000C801099597FD04C0F80100851185ECCF29
:1009400089810F90DF91CF911F910F910895DC0164
:10095000FB0112962C911297848195812817190614
:1009600041F491818081813A31F49D7F81E0913021
:1009700009F080E008958132E1F79B3029F482810B
:100980001F968C9381E008959A3099F78281509652
:100990008C93F8CFDC01FB0188E4808389E48183B8
:1009A00084E482831D969C911D979F709F5B938327
:1009B0001D968D919C9124E0969587952A95E1F757
:1009C0008F708F5B848385E00895EF92FF920F9381
:1009D0001F93CF93DF93FB012081213871F5238191
:1009E000223259F5DC0112964C912481358142174F
:1009F000130619F5EC010B851C85F12CE12C011572
:100A0000110589F0F801448155816281738180E884
:100A10000E946D038F3F980749F0E80EF91ED80138
:100A20000D911C91ECCF81E08F87C701DF91CF91B1
:100A30001F910F91FF90EF90089590E080E0F6CF26
:100A4000CF93DF93CDB7DEB769970FB6F894DEBFCB
:100A50000FBECDBFFC01DB018C918F5F8C939E019B
:100A60002D5F3F4F8DE0D9011D928A95E9F729E06E
:100A7000298384E08A8391E09D8383E08E832A87A3
:100A800021E22B879C879D879F8722E2288B27E086
:100A90002B8B25E02C8B8E8B20E430E0388F2F8B36
:100AA000998F82818B8395858685998B8A8B8381AB
:100AB00080688D8B49E150E0BE016F5F7F4F80E021
:100AC0000E946D0369960FB6F894DEBF0FBECDBFCE
:100AD000DF91CF9108958251E82FF0E0E454FF4F69
:100AE000E49190917B008E2F880F880F80729F7DFC
:100AF000892B80937B00E770E064E0937C00809119
:100B00007A00806480937A0080917A0086FDFCCF21
:100B10008091780090917900E62FF0E0EE0FFF1FB2
:100B2000EC5BFE4F2081318144E0880F991F4A958C
:100B3000E1F7B0E0A0E0821B930BA109B10953E0FB
:100B4000B595A795979587955A95D1F7820F931FDD
:100B500091838083089589B120916C0190E09595EF
:100B6000879595958795837094E0299F900111242E
:100B7000822B8F7080936C01E0916C01F0E0E45562
:100B8000FF4FE4914091CD015091CE016091CF0192
:100B90007091D0018E2FEE0F990BAA0BBB0B840F17
:100BA000951FA61FB71F8093CD019093CE01A093F0
:100BB000CF01B093D00108951F920F920FB60F92FC
:100BC00011242F933F938F939F93AF93BF93809163
:100BD000FD019091FE01A091FF01B09100023091C2
:100BE000FC0123E0230F2D3758F50196A11DB11DFF
:100BF0002093FC018093FD019093FE01A093FF01DF
:100C0000B09300028091010290910202A091030230
:100C1000B09104020196A11DB11D80930102909331
:100C20000202A0930302B0930402BF91AF919F917F
:100C30008F913F912F910F900FBE0F901F9018959D
:100C400026E8230F0296A11DB11DD2CF1F920F924D
:100C50000FB60F9211242F933F934F935F936F938F
:100C60007F938F939F93AF93BF93EF93FF93E09105
:100C70000C01F0910D010995FF91EF91BF91AF919A
:100C80009F918F917F916F915F914F913F912F91A4
:100C90000F900FBE0F901F9018951F920F920FB6D6
:100CA0000F9211242F933F934F935F936F937F93F2
:100CB0008F939F93AF93BF93EF93FF93E0910A01BC
:100CC000F0910B010995FF91EF91BF91AF919F9129
:100CD0008F917F916F915F914F913F912F910F90E5
:100CE0000FBE0F901F9018951F920F920FB60F9284
:100CF00011242F933F934F935F936F937F938F9321
:100D00009F93AF93BF93EF93FF93E0910801F0910E
:100D100009010995FF91EF91BF91AF919F918F913B
:100D20007F916F915F914F913F912F910F900FBEE7
:100D30000F901F9018951F920F920FB60F921124CB
:100D40002F933F934F935F936F937F938F939F93D3
:100D5000AF93BF93EF93FF93E0910601F0910701EA
:100D60000995FF91EF91BF91AF919F918F917F91E5
:100D70006F915F914F913F912F910F900FBE0F9008
:100D80001F9018951F920F920FB60F9211242F9358
:100D90003F934F935F936F937F938F939F93AF9303
:100DA000BF93EF93FF93E0910401F0910501099542
:100DB000FF91EF91BF91AF919F918F917F916F9133
:100DC0005F914F913F912F910F900FBE0F901F9009
:100DD00018951F920F920FB60F9211248F939F9325
:100DE0008091E1009091E100937F9093E10083FF77
:100DF0000FC01092E90091E09093EB001092EC008C
:100E000092E39093ED001092560298E09093F000D8
:100E100082FF22C093E09093E9009091F200992321
:100E200019F09AE39093E80090915B01992341F0C7
:100E300090915B01915090935B01911101C05D9A7B
:100E400090915502992341F09091550291509093C1
:100E50005502911101C0289A84FF18C08091E200C8
:100E60008E7E81608093E2008091E1008F7E80938E
:100E7000E10080915C018E7E806180935C019F9196
:100E80008F910F900FBE0F901F90189580FFF7CF96
:100E90008091E2008E7E80618093E2008091E1008B
:100EA0008E7E8093E10080915C018E7E8160E5CF33
:100EB0001F920F920FB60F921124CF92DF92EF92F2
:100EC000FF920F931F932F933F934F935F936F93D3
:100ED0007F938F939F93AF93BF93EF93FF93CF93A2
:100EE000DF93CDB7DEB76C97DEBFCDBF1092E900C0
:100EF0008091E80083FF25C068E0CE0145960E94FE
:100F0000550482EF8093E8008D8987FF39C0909166
:100F1000E80090FFFCCF982F907609F034C19E89AD
:100F20004F89588D2F89F88C911131C0803861F527
:100F300080915D018093F1001092F1008EEF80931B
:100F4000E8006C960FB6F894DEBF0FBECDBFDF9100
:100F5000CF91FF91EF91BF91AF919F918F917F9131
:100F60006F915F914F913F912F911F910F91FF9042
:100F7000EF90DF90CF900F900FBE0F901F901895BD
:100F80009EEF9093E800C7CF1092F100D5CF91303B
:100F900059F48111D3CF4130510581F680915D0123
:100FA0008D7F80935D01CACF933049F48111C6CF04
:100FB0004130510519F680915D018260F2CF953084
:100FC00041F48091E80080FFFCCF20682093E3008B
:100FD000B5CF963009F0A9C00B8D1C8D22E0109280
:100FE000E9001092590110925801F2122EC010928D
:100FF0005701109256010E9476041F8299E099834E
:10100000FA8291E09E8390EA98879AEF99872091DF
:10101000580130915901275F3F4F3C832B838D83CB
:101020001092E90010925901109258011093570143
:101030000093560149E050E0BE016F5F7F4F80E0B2
:101040000E946D030E94760479CF1093570100939C
:1010500056010E946204DC0112960D911C9101154B
:10106000110509F451C1D801ED91FC910480F5817D
:10107000E02DBE016B5E7F4FC8010995009709F016
:101080003EC1F80100851185EACFF3E0FF120EC0E2
:101090008F89882309F440C0823061F440E860E120
:1010A0008CE291E00E943A03811148CF81E2809363
:1010B000EB0047CF813029F440E86BE080E291E01B
:1010C000F1CF833099F70E946204DC011296ED9013
:1010D000FC908E010F5F1F4F6801E114F10479F05D
:1010E000D701ED91FC910680F781E02DB801C70191
:1010F0000995080F111DF701E084F184EECFD801A6
:101100001C92F60101900020E9F73197BF016C199C
:101110007D0940E0C601C6CF6AE071E0FB01449161
:1011200050E080E80E946D0309CF973009F4BECFEC
:10113000983021F481E08093F10000CF993009F0DC
:10114000FDCE837009F0B2CFE7E1F1E081E031E05C
:1011500096E32191222371F08093E9003093EB0014
:10116000DF0111972C912093EC009093ED008F5F9D
:10117000873079F78EE78093EA001092EA008F8932
:1011800080935602DBCE8B8D9C8D1092E9001092DD
:101190005901109258019093570180935601898DFF
:1011A000811192C08E899D89913A49F4813209F06A
:1011B0007DCF47E050E06EE071E080E0B3CF913248
:1011C00009F074CF833269F48F89988DB0E0A0E084
:1011D0008093000190930101A0930201B093030159
:1011E000ADCE803269F48091E80082FFFCCF67E0E9
:1011F0008EE091E00E9455048BEF8093E8009ECE34
:10120000823209F09BCE8F8980931501EEEFFFE7C4
:10121000859194918B3F9C4D51F1E0E0F8E08091F5
:101220000E0190910F01A0911001B0911101803B2E
:101230009440A105B105F1F48091150180FD1AC01B
:10124000EE3F8AE0F80789F587E797E79183808387
:101250008091600080935A0188E19BE00FB6F8947A
:10126000A895809360000FBE9093600067CEEEEF6C
:10127000FAE0D5CF808191818737974709F05ECE1C
:10128000A8958091600088618093600080915A01E8
:1012900080936000EE3F2AE0F20789F08091FE0A19
:1012A0009091FF0A9183808349CE80819181873715
:1012B000980751F29093FF0A8093FE0AC5CF1092CF
:1012C000FF0A1092FE0A3ACE0E946204DC011296D6
:1012D0000D911C910115110509F4E8CED801ED918D
:1012E000FC910190F081E02DBE016B5E7F4FC80143
:1012F0000995811123CEF80100851185EBCF1816D1
:1013000019060CF41BCED2CEF1E0FF12BECE6EE079
:1013100071E004CFE5E0F2E01382128288EE93E000
:10132000A0E0B0E084839583A683B78385E391E052
:10133000918380838FEF9FEF958784870895CF9364
:10134000DF93CDB7DEB72D970FB6F894DEBF0FBE93
:10135000CDBF789484B5826084BD84B5816084BD3E
:1013600085B5826085BD85B5816085BD80916E0043
:10137000816080936E001092810080918100826074
:1013800080938100809181008160809381008091B1
:1013900080008160809380008091910082608093C2
:1013A00091008091910081608093910080919000E4
:1013B0008160809390008091C10084608093C1001F
:1013C0008091C10082608093C1008091C1008160E2
:1013D0008093C1008091C30081608093C30080919D
:1013E000C00082608093C0008091C20081608093C1
:1013F000C20080917A00846080937A0080917A00A4
:10140000826080937A0080917A00816080937A0074
:1014100080917A00806880937A0010925602109230
:101420005D0110925C018091D70081608093D700AC
:1014300080EA8093D80089B5806189BD89B58260D2
:1014400089BD09B400FEFDCF0E94F3028091D8004F
:101450008F7C80618093D8008091E000807F8093B2
:10146000E0008091E1008E7E8093E1008DE080932A
:10147000E200559A209A60E088E00E94920260E0C3
:1014800089E00E94920260E08AE00E94920260E09D
:101490008BE00E94920261E08DE00E94920260E087
:1014A0008DE00E94640262E080E00E94920262E0AD
:1014B00081E00E94920260E085E00E94920260E07A
:1014C00086E00E94920260E087E00E94920260E063
:1014D0008CE00E94920262E08EE00E94920262E042
:1014E0008FE00E94920262E080E10E94920262E03C
:1014F00084E00E9492024DE651E090E080E0FA0123
:1015000030E020E08C0103541E4FBC0163557E4F38
:10151000D801A20FB31F1C92DB01A20FB31F1C92B4
:1015200011921192119211922F5F3F4F2430310589
:1015300079F7405F5F4F04968031910501F789B1DB
:1015400090E09595879595958795837080936C012C
:101550002BEA35E03093090120930801809169005E
:101560008F7C806180936900EA9A30930B0120930D
:101570000A01809169008F73806480936900EB9AFF
:1015800080916401811113C010925F0110925E017D
:101590008DE391E090936101809360018CE390E092
:1015A000909363018093620181E080936401809154
:1015B000D10181112AC011E010935B0210935C02EB
:1015C00081E692E090935E0280935D021092600249
:1015D00010925F0289E291E0909358028093570243
:1015E00010926302109262021092650210926402DD
:1015F000109366021093670281EC809361020E944F
:1016000062040E942B011093D101E0916202F091DB
:101610006302309709F0ECC18EE591E0909363028C
:101620008093620280916402909165022091620130
:1016300030916301820F931F90936502809364023F
:10164000EDEEF1E08BE0DF011D928A95E9F74BE0CA
:1016500050E06FEF70E082EE91E00E94890D01E0B2
:101660008FB7F8944090FD015090FE016090FF010B
:10167000709000028FBF0E94CE024B015C01E1E23C
:10168000F1E0F987E8872DE631E03F832E83F12CE6
:10169000E12CA885B9852D90B987A88761E0822DB6
:1016A0000E94920260E0822D0E94640283E290E038
:1016B0000197F1F7EDE1F1E0FD83EC8367012E8105
:1016C0003F813B832A83AC81BD812D91BD83AC8357
:1016D00030E0F901EF51FE4F8491F901EE53FE4FD6
:1016E0003490F901ED55FE4F149161E0112381F022
:1016F00081110E941802E12FF0E0EE0FFF1FE75862
:10170000FE4FA591B491EC913E2261E009F060E0BA
:10171000F601E355FE4F9081961709F472C160837C
:10172000EA81FB814082518262827382AA81BB81FD
:101730001496BB83AA83BFEFCB1ADB0AEC81FD8131
:10174000E152F14009F0BFCF61E0822D0E946402B6
:1017500060E0822D0E9492024E815F81405F5F4F68
:101760005F834E8354E0E50EF11C80E1E816F1043E
:1017700009F08FCF8091F8019091F901A091FA01C1
:10178000B091FB01A5019401281B390B4A0B5B0B9F
:10179000DA01C901B7FD23C130ED830E37E0931E96
:1017A000A11CB11C8092F8019092F901A092FA015B
:1017B000B092FB011092ED011092EE011092EF0138
:1017C0002DEB31E068E090E080E0F901E80FF91FCF
:1017D00040814423B9F0462F480FE42FF0E053E056
:1017E000F595E7955A95E1F7E351FE4F4770A1E073
:1017F000B0E002C0AA0FBB1F4A95E2F7AD015081CD
:10180000452B4083019684309105F9F62C5F3F4FBC
:101810006C5F6831C1F6F8942091CD013091CE0112
:101820004091CF015091D00178942834B4EF3B0718
:10183000BFEF4B075B0724F428E434EF4FEF5FEF73
:10184000293BEBE03E074105510524F028EB3BE046
:1018500040E050E0AFEFBFE70E94400D28EB3BE0D7
:1018600040E050E00E941B0D3093F1012093F00105
:1018700060E082E10E946B059093F3018093F20196
:1018800061E083E10E946B059093F5018093F40180
:1018900062E084E10E946B059093F7018093F6016A
:1018A0004BE050E062EE71E08DEE91E00E947C0D25
:1018B000892BB1F48091DE019091DF01A091E001CC
:1018C000B091E101A3019201281B390B4A0B5B0B7C
:1018D000DA01C9018A3F9105A105B10508F453C099
:1018E0008091D101811129C000935B0200935C02B9
:1018F00081E692E090935E0280935D021092600216
:1019000010925F0289E291E090935802809357020F
:1019100010926302109262021092650210926402A9
:10192000009366020093670281EC809361020E943B
:1019300062040E942B010093D101098341E050E031
:10194000BE016F5F7F4F80915A020E94A90397FDED
:1019500009C080915A024BE050E06DEE71E0806466
:101960000E94A9038BE0EDEEF1E0A2EEB1E0019060
:101970000D928A95E1F74092DE015092DF0160926C
:10198000E0017092E1018091DA019091DB01A09178
:10199000DC01B091DD01481659066A067B06F8F0B5
:1019A0006091D90184E690E0A0E0B0E0662321F0E8
:1019B0008CE697E0A0E0B0E0840D951DA61DB71D54
:1019C0008093DA019093DB01A093DC01B093DD01F9
:1019D00031E063276093D9018DE00E94640280E0CA
:1019E00090E0892B09F43CCE0E94000039CEFC0126
:1019F000808191810097D9F78EE591E09183808372
:101A000011CEF601E354FE4F9081691709F48ECE92
:101A1000AA81BB812D913D914D915C91D301C20171
:101A2000821B930BA40BB50B0897A105B10508F415
:101A30007DCE60837BCE052E97FB1EF400940E9422
:101A4000320D57FD07D00E944B0D07FC03D04EF41A
:101A50000C94320D50954095309521953F4F4F4F46
:101A60005F4F089590958095709561957F4F8F4F4A
:101A70009F4F0895EE0FFF1F0590F491E02D0994FC
:101A80000E946D0DA59F900DB49F900DA49F800D99
:101A9000911D11240895A1E21A2EAA1BBB1BFD0162
:101AA0000DC0AA1FBB1FEE1FFF1FA217B307E4073D
:101AB000F50720F0A21BB30BE40BF50B661F771F95
:101AC000881F991F1A9469F7609570958095909575
:101AD0009B01AC01BD01CF010895A29FB001B39F4E
:101AE000C001A39F700D811D1124911DB29F700D27
:101AF000811D1124911D0895FB01DC0104C08D910D
:101B00000190801921F441505040C8F7881B990B6F
:101B10000895DC0101C06D9341505040E0F70895F5
:041B2000F894FFCF67
:101B2400FFFFFFFF0B030B030B030B030B0300E18E
:101B340000000000000000C180810000000E0F10B2
:101B4400040506070C00000000A7042005E504CAEC
:101B540004000000009B013F04A403B101FE01BC8A
:041B640001DA0100A1
:00000001FF
