:100000000C9442010C946A010C946A010C946A01EC
:100010000C946A010C946A010C946A010C94080611
:100020000C946A010C946A010C946A010C946A01A4
:100030000C946A010C946A010C946A010C946A0194
:100040000C94BC060C946A010C948A060C94640609
:100050000C946A010C946A010C946A010C946A0174
:100060000C946A010C946A01207761726D65643D9D
:1000700000206D757465643D0020616C61726D3D9A
:1000800000207761726E3D004F4B2043464720624F
:100090006173656C696E653D0000000000240027F7
:1000A000002A00000000080002010000030407000D
:1000B0000000000000000023207761726D696E6708
:1000C000207570207468652073656E736F722C20C4
:1000D00061626F7574203330207365636F6E647373
:1000E0000023206761735F73657269616C207265BC
:1000F0006164790045525220756E6B6E6F776E2089
:10010000636F6D6D616E64004F4B205341564544E3
:10011000004F4B2054455354004552522075736193
:100120006765204D555445204F4E7C4F4646002371
:10013000207761726E20616C61726D206973206E30
:100140006F742061626F7665207761726E2C205229
:100150004953494E472077696C6C20626520736B68
:1001600069707065640045525220756E6B6E6F77D2
:100170006E2073657474696E670045525220766113
:100180006C7565206F7574206F662072616E67658F
:1001900020352E2E3930300045525220757361675C
:1001A0006520534554203C5741524E7C414C4152AE
:1001B0004D3E203C6E3E004F4B2043414C2073741B
:1001C00061727465642C206B6565702074686520AD
:1001D00061697220636C65616E20666F72203520E4
:1001E0007365636F6E647300455252207374696C5B
:1001F0006C207761726D696E67207570004F4B20BF
:10020000504F4E47004F4B2043414C206261736575
:100210006C696E653D0023206C6561726E696E6766
:100220002074686520636C65616E2D61697220625F
:100230006173656C696E650023207761726D2D7541
:10024000702066696E69736865640054200001025D
:100250000408102040800102040810200102040854
:10026000102000000000250028002B0004040404D6
:100270000404040402020202020203030303030350
:100280000200D10C11241FBECFEFD8E0DEBFCDBFDE
:1002900022E0AAE7B1E001C01D92AF39B207E1F751
:1002A00011E0A0E0B1E0E6E2FFE102C005900D92AE
:1002B000AA37B107D9F711E0C2E4D1E004C0219711
:1002C000FE010E94780FC134D107C9F70E940607CA
:1002D0000C94910F0C94000085E480937C00809135
:1002E0007A00806480937A0080917A0086FDFCCF4A
:1002F00080917800909179000895AF92BF92CF924B
:10030000DF92EF92FF920F931F93CF93DF936C01D5
:100310007B018B01040F151FEB015E01AE18BF08B6
:10032000C017D10759F06991D601ED91FC91019068
:10033000F081E02DC6010995892B79F7C501DF9180
:10034000CF911F910F91FF90EF90DF90CF90BF90D2
:10035000AF900895FC01538D448D252F30E0842FFC
:1003600090E0821B930B541710F0CF9608950197DD
:100370000895FC01918D828D981761F0A28DAE0FCA
:10038000BF2FB11D5D968C91928D9F5F9F73928F51
:1003900090E008958FEF9FEF0895FC01918D828D7D
:1003A000981731F0828DE80FF11D858D90E008954A
:1003B0008FEF9FEF0895FC01918D228D892F90E0A2
:1003C000805C9F4F821B91098F73992708958FEE50
:1003D00091E00E94DB0121E0892B09F420E0822FCB
:1003E000089580E090E0892B29F00E94E7018111B7
:1003F0000C9400000895FC01A48DA80FB92FB11D25
:10040000A35ABF4F2C91848D90E001968F7399274A
:10041000848FA689B7892C93A089B1898C91837028
:1004200080648C93938D848D981306C00288F38921
:10043000E02D80818F7D80830895EF92FF920F934E
:100440001F93CF93DF93EC0181E0888F9B8D8C8D80
:1004500098131AC0E889F989808185FF15C09FB774
:10046000F894EE89FF896083E889F9898081837037
:10047000806480839FBF81E090E0DF91CF911F91E6
:100480000F91FF90EF900895F62E0B8D10E00F5F07
:100490001F4F0F731127E02E8C8D8E110CC00FB6DD
:1004A00007FCFACFE889F989808185FFF5CFCE0175
:1004B0000E94FB01F1CFEB8DEC0FFD2FF11DE35AF4
:1004C000FF4FF0829FB7F8940B8FEA89FB898081F8
:1004D0008062CFCF682F8FEE91E00C941D020F93B6
:1004E0001F93CF93DF938C01D0E0C0E0F801EC0FB5
:1004F000FD1F6491662341F08FEE91E00E941D0282
:10050000892B11F02196F2CFCE01DF91CF911F916F
:100510000F910895CF93DF93EC01888D8823B9F074
:10052000AA89BB89E889F9898C9185FD03C08081FE
:1005300086FD0DC00FB607FCF7CF8C9185FFF2CF7B
:10054000808185FFEDCFCE010E94FB01E9CFDF91D5
:10055000CF91089590E0FC01ED55FF4F2491FC01EF
:10056000E25BFD4F3491FC01E459FD4FE491EE2331
:10057000C9F0222339F0233001F1A8F4213019F118
:10058000223029F1F0E0EE0FFF1FEE59FD4FA5914B
:10059000B4918FB7F894EC91611126C030953E2349
:1005A0003C938FBF08952730A9F02830C9F024303C
:1005B00049F7809180008F7D03C0809180008F7704
:1005C00080938000DFCF84B58F7784BDDBCF84B587
:1005D0008F7DFBCF8091B0008F778093B000D2CF1A
:1005E0008091B0008F7DF9CF3E2BDACF9091020140
:1005F00089130BC0E0E8F2E0E4919FEF90930201D1
:10060000E13049F028F0E23061F060E00C94AA0299
:1006100010926E00FACF90916F009D7F90936F00C3
:10062000F4CF909170009D7F9093700091E0909333
:10063000B0009091B100987F94609093B1001092B7
:10064000B300E3CFCF93DF9390E0FC01E25BFD4F7B
:10065000249184599D4FFC0184918823D1F090E02E
:10066000880F991FFC01E756FF4FA591B491FC013B
:10067000EE59FD4FC591D49161110EC09FB7F8940A
:100680008C91E22FE0958E238C932881E223E883DE
:100690009FBFDF91CF9108958FB7F894EC91E22B33
:1006A000EC938FBFF6CF8F929F92AF92BF92CF9273
:1006B000DF92EF92FF92CF936C018091020188301C
:1006C00069F08F3F09F470C0CF91FF90EF90DF90F9
:1006D000CF90BF90AF909F908F900895E0E8F2E0A8
:1006E000C491C7FDF1CF61E088E00E942203CC23D2
:1006F00019F0C23009F022C1F12CE12C60E072E166
:100700008AE790E0A70196010E94590F49015A011A
:10071000DA01C9010197A109B1098F3F9105A1052E
:10072000B10509F00CF4EEC060E472E48FE090E0F3
:10073000A70196010E94590F215031094109510921
:10074000C23009F0A0C082E02F3F310541055105BC
:1007500009F00CF488C160E970ED83E090E0A70136
:1007600096010E94590F215031094109510983E036
:100770002F3F31054105510509F00CF474C168E4BF
:1007800078EE81E090E0A70196010E94590F215078
:100790003109410951092F3F31054105510511F03A
:1007A0000CF08FC084E05FC188E080930201E0E834
:1007B000F2E0C491CF3F09F487CFC13021F150F06E
:1007C000C23009F43EC0C7FD7FCF61E088E00E94DF
:1007D00022038FCF14BC15BC84B5826084BD85B55F
:1007E000816085BDE4E7F2E0E491F0E0EE0FFF1FE9
:1007F000EE59FD4F85919491E6E5F2E0E491E093A6
:100800009002C0E070CF1092800010928100809121
:100810008100886080938100809181008160809355
:100820008100E4E7F2E0E491F0E0EE0FFF1FEE5903
:10083000FD4F85919491E6E5F2E0E491E0938F021B
:1008400052CF1092B0001092B1008091B00082603F
:100850008093B0008091B10081608093B100E4E7A3
:10086000F2E0E491F0E0EE0FFF1FEE59FD4F8591AD
:10087000949190938E0280938D02E6E5F2E0E491EC
:10088000E0938C0230CF2F3F31054105510509F02F
:100890000CF452C068E478EE81E090E0A701960184
:1008A0000E94590F2150310941095109CC2309F403
:1008B000AFC02F3F31054105510511F00CF0B0C01C
:1008C00071CF64E274EF80E090E0A70196010E948E
:1008D000590F215031094109510985E02F3F310558
:1008E0004105510509F008F4BEC062E17AE780E0F5
:1008F00090E0A70196010E94590F2150310941094A
:1009000051099CC09C0181E0C111ADC095B5987F93
:10091000892B85BD27BD8FEF9FEFDC018093990266
:1009200090939A02A0939B02B0939C0280916E00D8
:10093000826080936E00C8CE82E0E6CFF12CE12C7D
:1009400060E072E18AE790E0A70196010E94590FEA
:10095000215031094109510991E02115310581E00A
:10096000480751056CF068E478EE81E090E0A7015B
:1009700096010E94590F215031094109510993E014
:10098000C13009F076C080918100887F892B8093E7
:10099000810030938900209388008FEF9FEFDC0166
:1009A0008093950290939602A0939702B093980239
:1009B00080916F00826080936F0086CE2093B30099
:1009C0008FEF9FEFDC018093910290939202A093AE
:1009D0009302B093940280917000826080937000C3
:1009E00073CE84E02F3F31054105510509F008F42D
:1009F0008DCF9AE0B594A794979487949A95D1F760
:100A0000A5019401215031094109510985E07ECFAA
:100A100083E02F3F31054105510509F00CF476CFF5
:100A200062E17AE780E090E0A70196010E94590F09
:100A30002150310941095109CC2399F286E02F3F19
:100A400031054105510579F070F08AE0B594A7941D
:100A5000979487948A95D1F7A50194012150310983
:100A60004109510987E09091B100987F892B8093CB
:100A7000B100C13009F48DCFC23009F49FCFC1114C
:100A800023CE48CFFC0101900020E9F73197AF0158
:100A9000481B590BBC018FEE91E00C947D018F92A5
:100AA0009F92AF92BF920F931F93CF93DF93CDB7D7
:100AB000DEB7A1970FB6F894DEBF0FBECDBF19A267
:100AC000423008F44AE08E010F5D1F4F842E912CB6
:100AD000B12CA12CA50194010E94370FE62FB9017A
:100AE000CA01EA30F4F4E05DD801EE938D01232BC6
:100AF000242B252B79F790E080E0109719F0CD0199
:100B00000E944205A1960FB6F894DEBF0FBECDBF7E
:100B1000DF91CF911F910F91BF90AF909F908F90D9
:100B20000895E95CE1CFCF93DF930E946F02EC015F
:100B30008BE191E00E9442058C0F9D1FDF91CF91C8
:100B40000895CF92DF92EF92FF92CF93DF936C01E3
:100B5000990FEE08FF08F7FE17C08DE20E946A02A7
:100B6000EC0166277727CB016C197D098E099F0957
:100B70004AE00E944F058C0F9D1FDF91CF91FF909F
:100B8000EF90DF90CF9008954AE0C701B601DF9162
:100B9000CF91FF90EF90DF90CF900C944F0588E8B5
:100BA00090E00E946F028091C4019091C5010E9463
:100BB000A10581E890E00E946F028091C6019091AA
:100BC000C7010E94A10589E790E00E946F02809111
:100BD000C8019091C9010E94A10581E790E00E949F
:100BE0006F0281E090E02091CA01211102C090E0E3
:100BF00080E00E94A10588E690E00E946F0280914B
:100C0000BB0190E00E94A1058BE191E00C944205AC
:100C10001F920F920FB60F9211242F933F934F9371
:100C20005F936F937F938F939F93AF93BF93EF9354
:100C3000FF938091910290919202A0919302B091C2
:100C40009402892B8A2B8B2BD1F190918C02E0910D
:100C50008D02F0918E02808189278083809191029C
:100C600090919202A0919302B091940218161906E5
:100C70001A061B069CF48091910290919202A09119
:100C80009302B09194020197A109B1098093910256
:100C900090939202A0939302B0939402FF91EF91EC
:100CA000BF91AF919F918F917F916F915F914F9184
:100CB0003F912F910F900FBE0F901F90189580912C
:100CC00002010E94F602EACF1F920F920FB60F9216
:100CD00011242F933F934F935F936F937F938F9341
:100CE0009F93AF93BF93EF93FF938FEE91E00E949A
:100CF000FB01FF91EF91BF91AF919F918F917F91F8
:100D00006F915F914F913F912F910F900FBE0F9078
:100D10001F9018951F920F920FB60F9211242F93C8
:100D20008F939F93EF93FF93E091FF01F091000267
:100D30008081E0910502F091060282FD1BC0908146
:100D4000809108028F5F8F7320910902821741F012
:100D5000E0910802F0E0E151FE4F958F8093080288
:100D6000FF91EF919F918F912F910F900FBE0F9058
:100D70001F9018958081F4CF1F920F920FB60F929B
:100D800011242F933F938F939F93AF93BF938091A1
:100D90007F0190918001A0918101B09182013091F9
:100DA0007E0123E0230F2D3758F50196A11DB11DBB
:100DB00020937E0180937F0190938001A093810115
:100DC000B093820180917A0190917B01A0917C0186
:100DD000B0917D010196A11DB11D80937A01909380
:100DE0007B01A0937C01B0937D01BF91AF919F9156
:100DF0008F913F912F910F900FBE0F901F901895DC
:100E000026E8230F0296A11DB11DD2CFCF93DF9309
:100E100000D000D0CDB7DEB7789484B5826084BDB1
:100E200084B5816084BD85B5826085BD85B58160EE
:100E300085BD80916E00816080936E00109281006C
:100E40008091810082608093810080918100816027
:100E500080938100809180008160809380008091E8
:100E6000B10084608093B1008091B0008160809374
:100E7000B00080917A00846080937A0080917A003B
:100E8000826080937A0080917A00816080937A00FA
:100E900080917A00806880937A001092C100E0917E
:100EA000FF01F091000282E08083E091FB01F0916C
:100EB000FC011082E091FD01F091FE0180E1808350
:100EC00010920702E0910302F091040286E0808311
:100ED000E0910102F0910202808180618083E091C3
:100EE0000102F0910202808188608083E09101021A
:100EF000F0910202808180688083E0910102F0918C
:100F0000020280818F7D808360E083E10E94220362
:100F100061E088E00E94220361E087E00E942203F2
:100F200060E087E00E94AA0288E00E94F60202ECDC
:100F300011E01A82198289819A810E94500DF8016C
:100F400081938F0129813A812F5F3F4F3A83298313
:100F50002930310581F78091C2019091C30181351B
:100F60009A46C1F081E59AE69093C3018093C2014D
:100F70001092C5011092C40184E690E09093C701DD
:100F80008093C6018AEF90E09093C9018093C801D5
:100F90001092CA010E946C01BC01990F880B990B39
:100FA0000E94100E6093D4017093D5018093D601F6
:100FB0009093D70181EE90E00E94930587EB90E03B
:100FC0000E9493050E94CF0508E710E048E7242E11
:100FD00045E0342E8FB7F894C0907F01D090800107
:100FE000E0908101F09082018FBF8FEE91E00E942E
:100FF000DB01892B09F460C18FEE91E00E94B901F9
:101000008D3099F3E091AB018A3009F049C1AE2FE0
:10101000B0E0AD57BE4F1C92EE23E9F063E271E001
:1010200083E891E00E941C0D5C010097A1F065E24D
:1010300071E00E947E0F892B29F48DEF91E00E94D0
:10104000930509C06AE271E0C5010E947E0F892BF9
:1010500029F40E94CF051092AB01C7CF6EE271E078
:10106000C5010E947E0F892B61F58091BB01811122
:1010700003C088EE91E0E3CF2FB7F89480917F0111
:1010800090918001A0918101B09182012FBF41E038
:101090004093BA018093B0019093B101A093B20143
:1010A000B093B3011092B6011092B7011092B8013B
:1010B0001092B9011092B5011092B40187EB91E042
:1010C000BECF65E571E0C5010E947E0F892B09F056
:1010D0004AC063E271E090E080E00E941C0D5C0178
:1010E00063E271E090E080E00E941C0DA114B10465
:1010F00011F0009719F488E991E0A1CF0E94FE0C4D
:101100004C0105978038934018F08AE791E097CF1B
:1011100062E371E0C5010E947E0F892BA9F49092D1
:10112000C7018092C6012091C8013091C901809108
:10113000C6019091C701821793070CF48ACF8FE202
:1011400091E00E94930585CF67E371E0C5010E949D
:101150007E0F892B29F49092C9018092C801E3CFB8
:1011600086E691E06CCF6DE371E0C5010E947E0FD1
:10117000892B49F563E271E090E080E00E941C0D4C
:101180005C01009769F062E471E00E947E0F892B98
:1011900051F065E471E0C5010E947E0F892B81F05A
:1011A00089E191E04CCF81E091E09093CA018823DE
:1011B00009F44FCF88E00E94F6021092E20149CF75
:1011C00080E090E0F2CF69E471E0C5010E947E0FFB
:1011D000892BF1F42FB7F89480917F0190918001D1
:1011E000A0918101B09182012FBF885A9D4FAF4FCE
:1011F000BF4F8093CB019093CC01A093CD01B093CE
:10120000CE0184EC99E00E94530381E191E017CF75
:101210006EE471E0C5010E947E0F892B11F581E516
:101220009AE69093C3018093C20132ECA32E31E081
:10123000B32E912C812CF50171905F01C4010E94A5
:10124000500D781621F0672DC4010E94580DFFEF54
:101250008F1A9F0A29E08216910469F788E091E0CD
:10126000EECE63E571E0C5010E947E0F892BA9F4E3
:1012700041E55AE65093C3014093C20184E690E0F1
:101280009093C7018093C601EAEFF0E0F093C901A3
:10129000E093C8011092CA01DCCE84EF90E0CFCE7B
:1012A000E73208F0A2CE91E09E0F9093AB01F0E000
:1012B000ED57FE4F808399CE8091EB019091EC0128
:1012C000A091ED01B091EE0126013701481A590AAB
:1012D0006A0A7B0AD301C2014497A105B10508F44B
:1012E0007EC0C092EB01D092EC01E092ED01F09251
:1012F000EE010E946C015C019093D9018093D801AA
:101300002FE832EC45E75FE36091D4017091D5019D
:101310008091D6019091D7010E94C50E2B013C010E
:10132000B501BB0C880B990B0E94100E2AE037ED1B
:1013300043E25DE30E94C50E9B01AC01C301B20113
:101340000E94670D6093D4017093D5018093D601FC
:101350009093D7018091BB0181112BC120E3C2166C
:1013600025E7D206E104F10408F0FAC01092EA0180
:101370001092E901A090E901B090EA018091E701A3
:101380009091E801A816B906C9F0B092E801A092C0
:10139000E701C092E301D092E401E092E501F0920E
:1013A000E6011092E20188E00E94F602C092DE019E
:1013B000D092DF01E092E001F092E10121E0A2167B
:1013C000B10409F4CDC108F4BEC142E0A416B104D1
:1013D00009F4D3C153E0A516B10409F4EBC180911F
:1013E000CB019091CC01A091CD01B091CE0100979D
:1013F000A105B105D1F0C816D906EA06FB0648F1E9
:101400001092CB011092CC011092CD011092CE011E
:1014100088E00E94F6021092E201C092E301D092AD
:10142000E401E092E501F092E601E091E2018091B1
:10143000CA01811107C08091C0019091C10100973C
:1014400009F0D3C1EE2329F088E00E94F602109241
:10145000E2018091D2019091D3016091CF01009778
:1014600009F0F8C18091D0019091D101892B09F048
:1014700095C2662331F060E087E00E94AA021092D4
:10148000CF018091DA019091DB01A091DC01B09154
:10149000DD01A7019601281B390B4A0B5B0BDA0112
:1014A000C90184369105A105B10508F44CC0C0926C
:1014B000DA01D092DB01E092DC01F092DD018BE4F5
:1014C00092E00E946F024AE0C701B6010E944F05F8
:1014D00080E20E946A028091D8019091D9010E9415
:1014E000A10580E20E946A02C090D401D090D5018B
:1014F000E090D601F090D701A7019601C701B6018F
:101500000E94320F882309F4D4C189E591E00E943A
:10151000420580E20E946A028091E9019091EA010D
:101520008330910508F037C2880F991FFC01EB5EEC
:10153000FE4F80819181009711F00E9442058BE15E
:1015400091E00E94420580E090E0892B09F442CDB1
:101550000E94E701882309F43DCD0E9400003ACDA6
:1015600031E03093BB0188E392E00E9493058091C3
:10157000C4019091C50118161906DCF041E04093B2
:10158000BA01C092B001D092B101E092B201F092E2
:10159000B3011092B6011092B7011092B8011092E7
:1015A000B9011092B5011092B40186E192E00E9457
:1015B00093058091BA01882309F45CC02091D80179
:1015C0003091D9012901032E000C6608770860913B
:1015D000B6017091B7018091B8019091B901640D85
:1015E000751D861D971D6093B6017093B70180939A
:1015F000B8019093B9014091B4015091B5014F5F8A
:101600005F4F5093B5014093B4014090B0015090AA
:10161000B1016090B2017090B30146015701841886
:101620009508A608B708E0E18E16E7E29E06A10439
:10163000B10408F49BCE4115510529F09A0150E000
:1016400040E00E94370F3093C5012093C4011092EF
:10165000BA0185E092E00E946F028091C4019091EE
:10166000C5010E94A1058BE191E00E9442050E9404
:10167000CF057CCE6091D4017091D5018091D601C7
:101680009091D7010E94D80D2091C4013091C501DD
:10169000AB01421B530B8091C8019091C9014817BF
:1016A000590744F58091C6019091C7014817590721
:1016B00024F182E090E0209100013091010128178F
:1016C000390761F09093010180930001C092AC0151
:1016D000D092AD01E092AE01F092AF012091E9010C
:1016E0003091EA012115310559F49093EA01809374
:1016F000E90140CE83E090E0DECF81E090E0DBCFF7
:101700008217930709F436CE48EB5BE060E070E0A7
:101710002817390724F040E45FE160E070E0409072
:10172000AC015090AD016090AE017090AF014601E8
:10173000570184189508A608B70884169506A606CA
:10174000B70698F617CE1092C1011092C0011093FF
:10175000D3010093D2013092D1012092D0013FCE2B
:101760001092C1011092C0011092D3011092D201C7
:101770001092D1011092D00132CE88E097E0909380
:10178000C1018093C00180E590E09093BF018093F8
:10179000BE0180E496E09093BD018093BC0180E996
:1017A00091E09093D3018093D2019093D1018093E3
:1017B000D00115CE84EC99E09093C1018093C001D3
:1017C00080E991E09093BF018093BE0188EC90E0A6
:1017D0009093BD018093BC011093D3010093D2017B
:1017E0001093D1010093D001FACD4090BE015090EA
:1017F000BF01E11104C04090BC015090BD01609058
:10180000E3017090E4018090E5019090E601A7016A
:1018100096012619370948095909712C612C24159C
:1018200035054605570508F414CEC092E301D09261
:10183000E401E092E501F092E60131E0E327E09374
:10184000E201EE2319F00E94530303CE88E00E94C8
:10185000F602FFCD611104C08091D0019091D101B9
:101860004090DE015090DF016090E0017090E10156
:101870004601570184189508A608B70824013501C8
:10188000B0E0A0E0481659066A067B0608F4F9CDD8
:10189000C092DE01D092DF01E092E001F092E1011E
:1018A0009924939469256093CF0187E00E94AA024E
:1018B000E8CD26013701E89477F82FEF3FEF4FE7A7
:1018C0005FE7C301B2010E94320F81110DC02FEFFB
:1018D0003FEF4FE75FE7C301B2010E94D30D181637
:1018E0001CF48DE591E013CE2FEF3FEF4FE75FE45F
:1018F000C701B6010E94C00E18161CF481E691E0E3
:1019000006CE2FEF3FEF4FE75FECC701B6010E9415
:10191000D30D87FDF3CF20E030E0A901C701B60168
:101920000E94D30D87FF07C08DE20E946A02F7FA7A
:10193000F094F7F8F0942DEC3CEC4CE45DE3C70137
:10194000B6010E94670D2B013C010E94DF0D6B0167
:101950007C010E940E0E9B01AC01C301B2010E94EA
:10196000660D2B013C014AE0C701B6010E944F05FC
:101970008EE20E946A0220E030E040E251E4C301BE
:10198000B2010E94C50E0E94DF0D90E080E04AE0A7
:101990000E944F05BECD8EE191E0CFCD611178CF91
:1019A0005BCFEFEEF1E01382128288EE93E0A0E0CD
:1019B000B0E084839583A683B78387E091E0918329
:1019C000808385EC90E09587848784EC90E097870E
:1019D000868780EC90E0918B808B81EC90E0938BFC
:1019E000828B82EC90E0958B848B86EC90E0978BD9
:1019F000868B118E128E138E148E0895FC0188270B
:101A00009927E89421912032E9F3293010F02E3003
:101A1000C8F32B3241F02D3239F4689404C00E948F
:101A2000480D820F911D219120532A30C0F31EF4DE
:101A3000909581959F4F08954DE952E00E94210DA8
:101A40000895FA01A191B081009719F41097E1F07F
:101A5000CD01DC01CD010D90002011F4C00113C0B7
:101A6000FB012191222319F02015D9F7F3CFFB01B7
:101A70002191201519F41E92119606C02223C1F758
:101A80000D900020A1F7D001FA01A193B083089531
:101A90007AE0979F902D879F802D910D11240895B6
:101AA000F999FECF92BD81BDF89A992780B5089526
:101AB000262FF999FECF1FBA92BD81BD20BD0FB66A
:101AC000F894FA9AF99A0FBE019608955058BB27D8
:101AD000AA270E947E0D0C94860E0E94780E38F084
:101AE0000E947F0E20F039F49F3F19F426F40C94E5
:101AF000750E0EF4E095E7FB0C946F0EE92F0E9433
:101B0000970E58F3BA17620773078407950720F0FA
:101B100079F4A6F50C94B90E0EF4E0950B2EBA2FBD
:101B2000A02D0B01B90190010C01CA01A0011124E3
:101B3000FF27591B99F0593F50F4503E68F11A168F
:101B4000F040A22F232F342F4427585FF3CF469520
:101B500037952795A795F0405395C9F77EF41F1642
:101B6000BA0B620B730B840BBAF09150A1F0FF0F0C
:101B7000BB1F661F771F881FC2F70EC0BA0F621FF8
:101B8000731F841F48F4879577956795B795F795E8
:101B90009E3F08F0B0CF9395880F08F09927EE0F7D
:101BA0009795879508950E944B0E08F481E008955B
:101BB0000E94DF0D6894B1110C94BA0E08950E9432
:101BC0009F0E88F09F5798F0B92F9927B751B0F022
:101BD000E1F0660F771F881F991F1AF0BA95C9F7B1
:101BE00014C0B13091F00E94B90EB1E008950C9488
:101BF000B90E672F782F8827B85F39F0B93FCCF33B
:101C0000869577956795B395D9F73EF4909580952D
:101C1000709561957F4F8F4F9F4F0895E89409C04D
:101C200097FB3EF490958095709561957F4F8F4F0F
:101C30009F4F9923A9F0F92F96E9BB279395F69525
:101C4000879577956795B795F111F8CFFAF4BB0FA3
:101C500011F460FF1BC06F5F7F4F8F4F9F4F16C007
:101C6000882311F096E911C0772321F09EE8872F91
:101C7000762F05C0662371F096E8862F70E060E04D
:101C80002AF09A95660F771F881FDAF7880F9695C6
:101C9000879597F90895990F0008550FAA0BE0E86A
:101CA000FEEF16161706E807F907C0F0121613061E
:101CB000E407F50798F0621B730B840B950B39F45E
:101CC0000A2661F0232B242B252B21F408950A26C4
:101CD00009F4A140A6958FEF811D811D089597F904
:101CE0009F6780E870E060E008959FEF80EC0895C2
:101CF00000240A94161617061806090608950024EB
:101D00000A9412161306140605060895092E039464
:101D1000000C11F4882352F0BB0F40F4BF2B11F4D8
:101D200060FF04C06F5F7F4F8F4F9F4F089557FD37
:101D30009058440F551F59F05F3F71F04795880F39
:101D400097FB991F61F09F3F79F0879508951216D0
:101D500013061406551FF2CF4695F1DF08C016167C
:101D600017061806991FF1CF86957105610508942D
:101D70000895E894BB2766277727CB0197F9089544
:101D80000E944B0E08F48FEF08950E94D80E0C9419
:101D9000860E0E94780E38F00E947F0E20F0952368
:101DA00011F00C946F0E0C94750E11240C94BA0E55
:101DB0000E94970E70F3959FC1F3950F50E0551F49
:101DC000629FF001729FBB27F00DB11D639FAA2790
:101DD000F00DB11DAA1F649F6627B00DA11D661FDF
:101DE000829F2227B00DA11D621F739FB00DA11D00
:101DF000621F839FA00D611D221F749F3327A00DBA
:101E0000611D231F849F600D211D822F762F6A2F55
:101E100011249F5750409AF0F1F088234AF0EE0FBA
:101E2000FF1FBB1F661F771F881F91505040A9F7E7
:101E30009E3F510580F00C946F0E0C94BA0E5F3FDC
:101E4000E4F3983ED4F3869577956795B795F79523
:101E5000E7959F5FC1F7FE2B880F911D969587959B
:101E600097F908950E944B0E880B990B0895A1E2F3
:101E70001A2EAA1BBB1BFD010DC0AA1FBB1FEE1F04
:101E8000FF1FA217B307E407F50720F0A21BB30B4F
:101E9000E40BF50B661F771F881F991F1A9469F7CB
:101EA00060957095809590959B01AC01BD01CF0127
:101EB0000895052E97FB1EF400940E94700F57FDA5
:101EC00007D00E94370F07FC03D04EF40C94700F1C
:101ED00050954095309521953F4F4F4F5F4F089556
:101EE00090958095709561957F4F8F4F9F4F089586
:101EF000EE0FFF1F0590F491E02D0994FB01DC012A
:101F00008D9181341CF08B350CF4805E61916134CD
:101F10001CF06B350CF4605E861B611189F3990B24
:061F20000895F894FFCFC4
:101F26000100FF000000001D027D01AA018A02DBFC
:101F360001B901CD0165016C0172010D0A004C4524
:101F4600414B00200050494E47004745540043414D
:101F56004C005741524E00414C41524D004D555494
:101F660045004F4E004F46460054455354005341DA
:101F76005645005245534554006E616E00696E66C3
:101F8600006F7666005741524D555000434C45410F
:0A1F96005200524953494E47000023
:00000001FF
