:100000000C94F5010C9426020C9426020C94260202
:100010000C9426020C9426020C9426020C942602C0
:100020000C9426020C9426020C9426020C942602B0
:100030000C9426020C9426020C9426020C942602A0
:100040000C9426020C94EF070C9426020C942602C2
:100050000C9426020C9426020C9426020C941B0786
:100060000C9426020C94E5060C94BB060C94260214
:100070000C9426020C9426020C9426020C94260260
:100080000C94C1070C9426020C9426020C942602B0
:100090000C9426020C9426020C9426020C94260240
:1000A0000C9426020C9426020C9493070C942602BE
:1000B0000C9426020C9426020C9426020C946507DC
:1000C0000C9426020C9426020C9426020C94260210
:1000D0000C9426020C9426020C9426020C94260200
:1000E0000C9426020C9486040C9494040C941D0821
:1000F0000C945D040C9459040C947C040C947804C6
:100100000C9490040C940A030C946E040C94E70273
:100110000C946A040C9443040C94F6020C94180397
:100120000C9461040C9455040C9474040C948A048B
:100130000C94BA020C94BD030C943E040C948204FB
:100140000C9450030C946404206D6F64653D002092
:10015000696E766572743D0020686967683D0020AD
:100160006C6F773D00207261776D61783D004F4B79
:1001700020434647207261776D696E3D0000000A9A
:100180000B02090C0D0E080703040100000000001B
:10019000000000000000000000000000000000005F
:1001A000000000000000000000121110000000001C
:1001B000000000000000000000000000000000003F
:1001C00000000000002200250028002B002E003136
:1001D00000340002010000050108010B01000021AC
:1001E00000240027002A002D003000330001010008
:1001F00000040107010A01050505050705080808AF
:1002000008020202020A0A080804040404010101A7
:1002100001010101010303030303030303040707AF
:10022000070C0C0C0C0C0C0C0C020202020606064D
:1002300006060606060B0B0B0B0B0B0B0B01021035
:1002400020200808102040102040800201020108F0
:1002500004020101020408102040808040201008A0
:1002600004020180040201804020100804020108F9
:100270000402010102040810204080010204081059
:100280002040800A23206B6E6F6220726561647962
:100290000045525220756E6B6E6F776E20636F6DE6
:1002A0006D616E64004F4B205341564544004552EA
:1002B0005220757361676520494E56455254204F50
:1002C0004E7C4F46460023207761726E2068696736
:1002D00068206973206E6F742061626F7665206C90
:1002E0006F770023207761726E207261776D61787D
:1002F000206973206E6F742061626F766520726171
:10030000776D696E0045525220756E6B6E6F776E19
:100310002073657474696E670045525220302E2E2A
:100320003138300045525220302E2E3138300045C1
:10033000525220302E2E313032330045525220306E
:100340002E2E31303233004552522075736167656D
:1003500020534554203C4D494E7C4D41587C4C4FD8
:10036000577C484947483E203C6E3E004F4B204159
:100370004E474C450045525220737769746368209C
:10038000746F204D4F444520574542206669727373
:10039000740045525220757361676520414E474C89
:1003A00045203C646567726565733E004552522086
:1003B0007573616765204D4F4445204B4E4F427C1D
:1003C00057454200455252207573616765204D4F75
:1003D0004445204B4E4F427C574542004F4B2050E6
:1003E0004F4E4700542000001D0811241FBECFEFC0
:1003F000D1E2DEBFCDBF00E00CBF12E0A0E0B2E072
:10040000E2E3FEE100E00BBF02C007900D92A236CE
:10041000B107D9F723E0A2E6B2E001C01D92A63EE3
:10042000B207E1F711E0C5EFD1E000E006C0219787
:100430000109802FFE010E94ED0EC43FD10780E02C
:100440000807A9F70E947A080C94170F0C94000073
:10045000CF92DF92EF92FF92DC01A03282E0B807E8
:10046000D4F5A53BB10514F0A4EBB0E04091E20354
:1004700028E830E0241B310947FD3395220F331F54
:10048000220F331F6901330FEE08FF084091E30389
:1004900028E532E0241B310947FD3395220F331F35
:1004A000220F331F032E000C440B550B2C193D0952
:1004B0004E095F09B7FF02C0B0E0A0E00E940A0D3C
:1004C00024EB30E040E050E00E94E00CC20ED31E6E
:1004D000E41EF51ED601E091E103E03380F52091A2
:1004E000E20388E890E0821B910927FD9395880F2D
:1004F000991F880F991FA817B90784F02091E3036B
:1005000088E592E0821B910927FD9395880F991F3A
:10051000880F991FA817B9070CF4CD010297880F0F
:10052000991F4FB7F8942E2F30E0F901EE0FFF1FFF
:10053000E20FF31FE05BFC4F928381834FBFFF907C
:10054000EF90DF90CF90089580917B00877F80931C
:100550007B0080E480937C0080917A0080648093AB
:100560007A0080917A0086FDFCCF8091780090918E
:1005700079000895AF92BF92CF92DF92EF92FF92EF
:100580000F931F93CF93DF936C017B018B01040FBB
:10059000151FEB015E01AE18BF08C017D10759F057
:1005A0006991D601ED91FC910190F081E02DC60199
:1005B0001995892B79F7C501DF91CF911F910F9183
:1005C000FF90EF90DF90CF90BF90AF900895FC0127
:1005D000538D448D252F30E0842F90E0821B930BA8
:1005E000541710F0CF96089501970895FC01918D4E
:1005F000828D981761F0A28DAE0FBF2FB11D5D9651
:100600008C91928D9F5F9F73928F90E008958FEFF2
:100610009FEF0895FC01918D828D981731F0828DA6
:10062000E80FF11D858D90E008958FEF9FEF0895FD
:10063000FC01918D228D892F90E0805C9F4F821B61
:1006400091098F739927089583EB92E00E94180314
:1006500021E0892B09F420E0822F0895FC01A48D6C
:10066000A80FB92FB11DA35ABF4F2C91848D90E0D4
:1006700001968F739927848FA689B7892C93A089B7
:10068000B1898C91837080648C93938D848D981341
:1006900006C00288F389E02D80818F7D80830895D4
:1006A000EF92FF920F931F93CF93DF93EC0181E0C2
:1006B000888F9B8D8C8D98131AC0E889F989808169
:1006C00085FF15C09FB7F894EE89FF896083E8899C
:1006D000F98980818370806480839FBF81E090E08E
:1006E000DF91CF911F910F91FF90EF900895F62E1B
:1006F0000B8D10E00F5F1F4F0F731127E02E8C8DB5
:100700008E110CC00FB607FCFACFE889F9898081F9
:1007100085FFF5CFCE010E942E03F1CFEB8DEC0FBC
:10072000FD2FF11DE35AFF4FF0829FB7F8940B8F16
:10073000EA89FB8980818062CFCF0F931F93CF938B
:10074000DF938C01D0E0C0E0F801EC0FFD1F649155
:10075000662341F083EB92E00E945003892B11F055
:100760002196F2CFCE01DF91CF911F910F91089585
:10077000682F83EB92E00C945003CF93DF93EC014E
:10078000888D8823B9F0AA89BB89E889F9898C9179
:1007900085FD03C0808186FD0DC00FB607FCF7CF35
:1007A0008C9185FFF2CF808185FFEDCFCE010E9435
:1007B0002E03E9CFDF91CF91089580E090E0892B5F
:1007C00029F00E94240381110E94000080E090E043
:1007D000892B49F080E090E0892B29F00E940000ED
:1007E00081110E94000080E090E0892B49F080E0B8
:1007F00090E0892B29F00E94000081110E940000E6
:1008000080E090E0892B49F080E090E0892B29F08E
:100810000E94000081110C9400000895282F30E000
:10082000F901E358FE4F9491F901E35CFD4F4491C7
:1008300029503E4FF9012491222309F435C0992310
:1008400011F191509231F8F4E92FF0E08827E45D3E
:10085000FB4F8F4F0C94ED0E5D0461043E04550474
:100860005904430464046A046E04740478047C0428
:100870008204860443048A049004940480918000D6
:100880008F7780938000E22FF0E0EE0FFF1FED5393
:10089000FE4FA591B4918FB7F894EC91611148C0C7
:1008A00040954E234C938FBF0895809180008F7D9B
:1008B000E8CF80918000877FE4CF84B58F7784BDB7
:1008C000E2CF84B58F7DFBCF8091B0008F7780938E
:1008D000B000D9CF8091B0008F7DF9CF809190008A
:1008E0008F7780939000CFCF809190008F7DF9CF4C
:1008F00080919000877FF5CF8091A0008F778093C3
:10090000A000C1CF8091A0008F7DF9CF8091A00081
:10091000877FF5CF809120018F7780932001B3CF1F
:10092000809120018F7DF9CF80912001877FF5CFC5
:100930004E2BB8CFAF92BF92CF92DF92EF92FF9241
:100940000F931F93CF93DF936B017A01EC01CE5984
:10095000DD4F28813CE0389F8001399F100D112424
:10096000A090E003B12C27FF1FC0FB011182108271
:1009700088818F5F888388819801280F311D87FDCA
:100980003A95F6012A153B051CF488818C30C4F198
:1009900080819181049680349C4908F473C0F601EB
:1009A00080819181049670C088819801280F311D43
:1009B00087FD3A952A153B05DCF68881A801480F8A
:1009C000511D87FD5A95FA01EE0FFF1FE40FF51F29
:1009D000E05BFC4F808186FFCBCF8881F801E80F78
:1009E000F11D87FDFA95CF01EE0FFF1FE80FF91FEC
:1009F000E05BFC4F808160E08F730E940E04B8CFF3
:100A0000808191812881A801420F511D27FD5A95AF
:100A10009A01FA01EE0FFF1FE20FF31FE05BFC4F9C
:100A200021813281820F931FF70191838083888116
:100A30009801280F311D87FD3A95F901EE0FFF1F30
:100A4000E20FF31FE05BFC4F808186FF22C08881AC
:100A5000080F111D87FD1A95F801EE0FFF1FE00F1B
:100A6000F11FE05BFC4F808161E08F73DF91CF91DC
:100A70001F910F91FF90EF90DF90CF90BF90AF90BC
:100A80000C940E0480E49CE9F701918380838FEF3E
:100A90008883DF91CF911F910F91FF90EF90DF90AE
:100AA000CF90BF90AF9008958F929F92AF92BF92D8
:100AB000CF92DF92EF92FF920F931F93CF93DF932A
:100AC000E0919A02F0919B0240919C0250919D020C
:100AD000E417F5071CF0AF014F5F5F4FBF01E81748
:100AE000F9070CF4BC010091A0021091A102C09181
:100AF0009E02D0919F029A01641775070CF49B0126
:100B00002E1B3F0BD801AC1BBD0B0E94F50E9A01AA
:100B10002E1B3F0B032E000C440B550B0E94E00CC8
:100B2000CE01DD0FAA0BBB0B6801110FEE08FF0809
:100B3000E091A202E11120C0BA01A901480F591F9A
:100B40006A1F7B1F84179507A607B70714F4DB01FC
:100B5000CA01C816D906EA06FB060CF4C601DF91E5
:100B6000CF911F910F91FF90EF90DF90CF90BF90AA
:100B7000AF909F908F90089546015701821A930A73
:100B8000A40AB50AB501A401DDCFE8E9F2E08BE0E3
:100B90009BE491838083138212828FEF93E095838D
:100BA00084831782168284EB90E091878087128677
:100BB0000895FC0101900020E9F73197AF01481B2F
:100BC000590BBC0183EB92E00C94BA028F929F9276
:100BD000AF92BF920F931F93CF93DF93CDB7DEB742
:100BE000A1970FB6F894DEBF0FBECDBF19A2423059
:100BF00008F44AE08E010F5D1F4F842E912CB12C1A
:100C0000A12CA50194010E94120DE62FB901CA0181
:100C1000EA30F4F4E05DD801EE938D01232B242B10
:100C2000252B79F790E080E0109719F0CD010E9414
:100C3000D905A1960FB6F894DEBF0FBECDBFDF91E8
:100C4000CF911F910F91BF90AF909F908F9008957B
:100C5000E95CE1CFCF93DF930E949D03EC0186E135
:100C600092E00E94D9058C0F9D1FDF91CF910895CE
:100C7000CF93DF930E94D905EC0186E192E00E94B8
:100C8000D9058C0F9D1FDF91CF910895CF92DF92F0
:100C9000EF92FF92CF93DF936C01990FEE08FF085C
:100CA000F7FE17C08DE20E94B803EC016627772794
:100CB000CB016C197D098E099F094AE00E94E60567
:100CC0008C0F9D1FDF91CF91FF90EF90DF90CF9021
:100CD00008954AE0C701B601DF91CF91FF90EF90F0
:100CE000DF90CF900C94E6058EE691E00E949D0384
:100CF00080919A0290919B020E94460685E691E0BF
:100D00000E949D0380919C0290919D020E94460644
:100D10008FE591E00E949D0380919E0290919F0239
:100D20000E94460688E591E00E949D038091A00202
:100D30009091A1020E9446068FE491E00E949D03DB
:100D400081E090E02091A202211102C090E080E0B9
:100D50000E94460688E491E00E949D038091A702CC
:100D60009091A802019721F08DE192E00C94380651
:100D700089E192E0FBCF1F920F920FB60F921124E0
:100D80000BB60F922F933F934F935F936F937F9385
:100D90008F939F93AF93BF93EF93FF9383EB92E077
:100DA0000E942E03FF91EF91BF91AF919F918F9180
:100DB0007F916F915F914F913F912F910F900BBE5B
:100DC0000F900FBE0F901F9018951F920F920FB6A5
:100DD0000F9211240BB60F922F938F939F93EF9343
:100DE000FF93E091C302F091C4028081E091C902B7
:100DF000F091CA0282FD1DC090818091CC028F5F6C
:100E00008F732091CD02821741F0E091CC02F0E087
:100E1000ED54FD4F958F8093CC02FF91EF919F9100
:100E20008F912F910F900BBE0F900FBE0F901F90C0
:100E300018958081F2CF1F920F920FB60F92112456
:100E40002F933F938F939F93AF93BF9380916B02A8
:100E500090916C02A0916D02B0916E0230916A0285
:100E600023E0230F2D3758F50196A11DB11D2093C6
:100E70006A0280936B0290936C02A0936D02B09310
:100E80006E028091660290916702A0916802B09113
:100E900069020196A11DB11D8093660290936702BD
:100EA000A0936802B0936902BF91AF919F918F9117
:100EB0003F912F910F900FBE0F901F90189526E82D
:100EC000230F0296A11DB11DD2CF1F920F920FB614
:100ED0000F9211240BB60F922F933F934F935F9372
:100EE0006F937F938F939F93AF93BF93EF93FF93F2
:100EF00048E251E064E271E090E080E00E949A04F0
:100F0000FF91EF91BF91AF919F918F917F916F91E1
:100F10005F914F913F912F910F900BBE0F900FBE9D
:100F20000F901F9018951F920F920FB60F921124D9
:100F30000BB60F922F933F934F935F936F937F93D3
:100F40008F939F93AF93BF93EF93FF9348EA50E043
:100F500064EA70E083E090E00E949A04FF91EF91D0
:100F6000BF91AF919F918F917F916F915F914F91C1
:100F70003F912F910F900BBE0F900FBE0F901F90BF
:100F800018951F920F920FB60F9211240BB60F9265
:100F90002F933F934F935F936F937F938F939F9381
:100FA000AF93BF93EF93FF9348E950E064E970E09B
:100FB00082E090E00E949A04FF91EF91BF91AF917F
:100FC0009F918F917F916F915F914F913F912F9161
:100FD0000F900BBE0F900FBE0F901F9018951F9291
:100FE0000F920FB60F9211240BB60F922F933F93CF
:100FF0004F935F936F937F938F939F93AF93BF9321
:10100000EF93FF9348E850E064E870E081E090E0FF
:101010000E949A04FF91EF91BF91AF919F918F91A0
:101020007F916F915F914F913F912F910F900BBEE8
:101030000F900FBE0F901F9018951092B60210924D
:10104000B50288EE93E0A0E0B0E08093B702909301
:10105000B802A093B902B093BA0288E092E09093EC
:10106000B4028093B30285EC90E09093C002809329
:10107000BF0284EC90E09093C2028093C10280ECA6
:1010800090E09093C4028093C30281EC90E090932F
:10109000C6028093C50282EC90E09093C8028093D0
:1010A000C70286EC90E09093CA028093C902109226
:1010B000CC021092CD021092CE021092CF028091FB
:1010C000E003803398F491E0980F9093E0038093CD
:1010D000E10390E0FC01EE0FFF1FE80FF91FE05B5A
:1010E000FC4F88EB9BE09283818308958FEF809380
:1010F000E1030895789484B5826084BD84B58160ED
:1011000084BD85B5826085BD85B5816085BD8091D2
:101110006E00816080936E0010928100809181004A
:101120008260809381008091810081608093810042
:10113000809180008160809380008091B100846004
:101140008093B1008091B00081608093B000809165
:1011500091008260809391008091910081608093E2
:101160009100809190008160809390008091A10017
:1011700082608093A1008091A10081608093A10092
:101180008091A00081608093A00080912101826005
:1011900080932101809121018160809321018091C0
:1011A000200181608093200180917A008460809387
:1011B0007A0080917A00826080937A0080917A0030
:1011C000816080937A0080917A00806880937A00B1
:1011D0001092C100E091C302F091C40282E08083CA
:1011E000E091BF02F091C0021082E091C102F09143
:1011F000C20280E180831092CB02E091C702F0919D
:10120000C80286E08083E091C502F091C602808129
:1012100080618083E091C502F091C6028081886080
:101220008083E091C502F091C6028081806880834E
:10123000E091C502F091C60280818F7D8083E3E753
:10124000F2E02491EDE2F2E084918823C1F090E095
:10125000880F991FFC01E352FE4FC591D491FC0108
:10126000ED53FE4FA591B4919FB7F8948881E22F7A
:10127000E0958E2388838C91E823EC939FBF809127
:10128000E103803308F06AC0E6E4F2E02491E0E094
:10129000F2E08491882399F090E0880F991FFC0177
:1012A000E352FE4FA591B491FC01ED53FE4F8591A1
:1012B00094918FB7F894EC91E22BEC938FBF8091CF
:1012C000E103282F30E0F901EE0FFF1FE20FF31FBB
:1012D000E05BFC4F9081907C996090839BE09093C1
:1012E000E2031092E3032CE0622F0E94E10E829F42
:1012F000B001112430E020E0AB01420F531FFA018E
:10130000EE0FFF1FE40FF51FE05BFC4F908196FD91
:1013100017C02F5F3F4F2C30310571F7813009F036
:1013200098C01092800082E0809381001092850026
:1013300010928400B19A80916F00826080936F0058
:10134000E091E1038E2F90E0FC01EE0FFF1FE80F0C
:10135000F91FE05BFC4F80818064808308E912E024
:10136000D0E0C0E0CE010E94CA0CF80181938F0149
:101370002196CB30D105B1F78091980290919902D6
:101380008B309B4411F00E94C5050E94A402EC0121
:10139000BC01990F880B990B0E94E80D6093A9027C
:1013A0007093AA028093AB029093AC02CE010E948C
:1013B000540590930102809300029093030280935E
:1013C00002020E94280283E892E00E942A060E94FC
:1013D00074069BE0892E9BE4992E01E010E08FB704
:1013E000F894C0906B02D0906C02E0906D02F09087
:1013F0006E028FBF83EB92E00E941803892B09F4E1
:10140000AAC183EB92E00E94F6028D3099F3E0913D
:1014100097028A3009F093C1AE2FB0E0A159BD4FB9
:101420001C92EE2309F44AC062E272E08FE692E079
:101430000E94970CEC01009709F440C064E272E04E
:101440000E94040F892B89F58CED93E00E942A06F7
:1014500035C0823061F41092900080939100109218
:1014600095001092940088BB8093710069CF8330FF
:1014700069F41092A00082E08093A1001092A50070
:101480001092A40089BB809372005ACF811158CF6B
:101490001092200182E08093210110922501109288
:1014A00024018ABB809373004BCF69E272E0CE01C6
:1014B0000E94040F892B29F40E947406109297024F
:1014C00099CF6DE272E0CE010E94040F892B79F56D
:1014D00062E272E090E080E00E94970CEC0184EC04
:1014E00093E0209709F4B2CF6DE172E0CE010E9443
:1014F000040F892B29F41092A8021092A702DCCFC6
:1015000069E172E0CE010E94040F892B69F4109307
:10151000A8020093A702809100029091010290938B
:10152000030280930202C8CF8CEA93E08FCF62E37C
:1015300072E0CE010E94040F892BF1F462E272E0A6
:1015400090E080E00E94970C009719F482E993E004
:101550007DCF2091A7023091A8022130310519F0EA
:1015600085E793E073CF0E94790C909303028093F8
:1015700002028CE693E06ACF6EE572E0CE010E9433
:10158000040F892B09F084C062E272E090E080E0F1
:101590000E94970C5C0162E272E090E080E00E94A1
:1015A000970CA114B10411F0009719F487E493E0AB
:1015B0004DCF0E94790CEC0168E372E0C5010E94F6
:1015C000040F892B59F58BE393E0C11524E0D20772
:1015D00008F03CCFD0939B02C0939A0220919C02CA
:1015E00030919D0280919A0290919B0282179307FD
:1015F00024F083EE92E00E942A062091A00230910E
:10160000A10280919E0290919F02821793070CF491
:1016100053CF86EC92E00E942A064ECF6CE372E034
:10162000C5010E94040F892B61F48FE293E0C1157C
:1016300034E0D30708F00ACFD0939D02C0939C02F8
:10164000CDCF60E472E0C5010E94040F892B59F4EC
:1016500084E293E0C53BD10508F0F8CED0939F0219
:10166000C0939E02BBCF64E472E0C5010E94040FE8
:10167000892B59F489E193E0C53BD10508F0E6CE0A
:10168000D093A102C093A002A9CF85E093E0DECE63
:1016900069E472E0CE010E94040F892BF9F462E242
:1016A00072E090E080E00E94970CEC01009769F0F6
:1016B00060E572E00E94040F892B51F063E572E04F
:1016C000CE010E94040F892B39F08EEA92E0BECE43
:1016D00081E08093A202F0CE80E0FBCF67E572E06C
:1016E000CE010E94040F892BE9F490929902809216
:1016F000980288E9A82E82E0B82ED0E0C0E0F5017B
:1017000071905F01CE010E94CA0C781621F0672DFE
:10171000CE010E94D20C2196CB30D10581F785EA0B
:1017200092E094CE6CE572E0CE010E94040F892B0A
:1017300019F40E94C505C0CE81E992E087CEE73258
:1017400008F058CE91E09E0F90939702F0E0E15997
:10175000FD4F80834FCE8091AF029091B002A09157
:10176000B102B091B202A7019601281B390B4A0BB6
:101770005B0BDA01C9014497A105B10508F46FC0FC
:10178000C092AF02D092B002E092B102F092B202E7
:101790000E94A402EC019093AE028093AD022DEC66
:1017A0003CEC4CE45FE36091A9027091AA02809145
:1017B000AB029091AC020E94740E2B013C01BE0161
:1017C000DD0F880B990B0E94E80D2DEC3CEC4CE4EE
:1017D0005EE30E94740E9B01AC01C301B2010E9442
:1017E000440D6093A9027093AA028093AB02909378
:1017F000AC022091A7023091A802232B49F40E9449
:10180000B00DCB010E945405909303028093020215
:1018100080919E0290919F022091020230910302DA
:10182000281739070CF49C018091A0029091A10225
:10183000281739070CF4C9012091000230910102E8
:10184000AC01421B530B9A012F5F3F4F23303105F0
:1018500030F090930102809300020E942802809150
:10186000A3029091A402A091A502B091A602A701A3
:101870009601281B390B4A0B5B0BDA01C901C29791
:10188000A105B10580F1C092A302D092A402E0921A
:10189000A502F092A60284EE93E00E949D034AE026
:1018A000C701B6010E94E60580E20E94B80380915C
:1018B000AD029091AE020E94460680E20E94B803FB
:1018C00080910002909101020E94460680E20E94EF
:1018D000B8038091A7029091A802019739F489E199
:1018E00092E00E9438060E94DD0379CD8DE192E0FE
:1018F000F8CFFC0188279927E89421912032E9F359
:10190000293010F02E30C8F32B3241F02D3239F44B
:10191000689404C00E94C20C820F911D2191205333
:101920002A30C0F31EF4909581959F4F089544EEA0
:1019300053E00C949B0CFA01A191B081009719F42B
:101940001097E1F0CD01DC01CD010D90002011F4E4
:10195000C00113C0FB012191222319F02015D9F7F2
:10196000F3CFFB012191201519F41E92119606C0A8
:101970002223C1F70D900020A1F7D001FA01A19315
:10198000B08308957AE0979F902D879F802D910DC9
:1019900011240895F999FECF92BD81BDF89A992737
:1019A00080B50895262FF999FECF1FBA92BD81BD4B
:1019B00020BD0FB6F894FA9AF99A0FBE01960895D1
:1019C000052E97FB1EF400940E94F70C57FD07D0DC
:1019D0000E94120D07FC03D04EF40C94F70C5095A6
:1019E0004095309521953F4F4F4F5F4F089590950B
:1019F0008095709561957F4F8F4F9F4F08950E94FE
:101A0000340DA59F900DB49F900DA49F800D911D46
:101A100011240895B7FF0C94FF0C0E94FF0C821B49
:101A2000930B0895A1E21A2EAA1BBB1BFD010DC04A
:101A3000AA1FBB1FEE1FFF1FA217B307E407F5077E
:101A400020F0A21BB30BE40BF50B661F771F881F5A
:101A5000991F1A9469F760957095809590959B01F0
:101A6000AC01BD01CF010895A29FB001B39FC00199
:101A7000A39F700D811D1124911DB29F700D811DBA
:101A80001124911D08955058BB27AA270E945B0D71
:101A90000C943A0E0E942C0E38F00E94330E20F067
:101AA00039F49F3F19F426F40C94290E0EF4E095B6
:101AB000E7FB0C94230EE92F0E944B0E58F3BA1744
:101AC000620773078407950720F079F4A6F50C9454
:101AD0006D0E0EF4E0950B2EBA2FA02D0B01B9015F
:101AE00090010C01CA01A0011124FF27591B99F094
:101AF000593F50F4503E68F11A16F040A22F232FA0
:101B0000342F4427585FF3CF469537952795A795EF
:101B1000F0405395C9F77EF41F16BA0B620B730B96
:101B2000840BBAF09150A1F0FF0FBB1F661F771F07
:101B3000881FC2F70EC0BA0F621F731F841F48F4BC
:101B4000879577956795B795F7959E3F08F0B0CF45
:101B50009395880F08F09927EE0F9795879508952C
:101B60000E94B70D6894B1110C946E0E08950E94F6
:101B7000530E88F09F5798F0B92F9927B751B0F0BE
:101B8000E1F0660F771F881F991F1AF0BA95C9F701
:101B900014C0B13091F00E946D0EB1E008950C9424
:101BA0006D0E672F782F8827B85F39F0B93FCCF3D7
:101BB000869577956795B395D9F73EF4909580957E
:101BC000709561957F4F8F4F9F4F0895E89409C09E
:101BD00097FB3EF490958095709561957F4F8F4F60
:101BE0009F4F9923A9F0F92F96E9BB279395F69576
:101BF000879577956795B795F111F8CFFAF4BB0FF4
:101C000011F460FF1BC06F5F7F4F8F4F9F4F16C057
:101C1000882311F096E911C0772321F09EE8872FE1
:101C2000762F05C0662371F096E8862F70E060E09D
:101C30002AF09A95660F771F881FDAF7880F969516
:101C4000879597F9089597F99F6780E870E060E0BD
:101C500008959FEF80EC089500240A941616170645
:101C600018060906089500240A941216130614068D
:101C700005060895092E0394000C11F4882352F0F0
:101C8000BB0F40F4BF2B11F460FF04C06F5F7F4FA8
:101C90008F4F9F4F089557FD9058440F551F59F08F
:101CA0005F3F71F04795880F97FB991F61F09F3F49
:101CB00079F087950895121613061406551FF2CF72
:101CC0004695F1DF08C0161617061806991FF1CFC2
:101CD00086957105610508940895E894BB276627E9
:101CE0007727CB0197F908950E94870E0C943A0E3E
:101CF0000E942C0E38F00E94330E20F0952311F034
:101D00000C94230E0C94290E11240C946E0E0E9438
:101D10004B0E70F3959FC1F3950F50E0551F629FD6
:101D2000F001729FBB27F00DB11D639FAA27F00D34
:101D3000B11DAA1F649F6627B00DA11D661F829F5B
:101D40002227B00DA11D621F739FB00DA11D621F40
:101D5000839FA00D611D221F749F3327A00D611D5D
:101D6000231F849F600D211D822F762F6A2F11243F
:101D70009F5750409AF0F1F088234AF0EE0FFF1F72
:101D8000BB1F661F771F881F91505040A9F79E3FC9
:101D9000510580F00C94230E0C946E0E5F3FE4F31B
:101DA000983ED4F3869577956795B795F795E7951F
:101DB0009F5FC1F7FE2B880F911D9695879597F928
:101DC0000895991B79E004C0991F961708F0961B97
:101DD000881F7A95C9F780950895EE0FFF1F881F19
:101DE0008BBF0790F691E02D19940E94340D332398
:101DF00012F48A1B9B0B0C94FF0E0E94340DB7FF4C
:101E00000895821B930B0895FB01DC018D918134B1
:101E10001CF08B350CF4805E619161341CF06B35E5
:101E20000CF4605E861B611189F3990B0895F89498
:021E3000FFCFE2
:101E32005A005A00000000005003BA02E702BD0334
:101E42001803F6020A030D0A00574542004B4E4F93
:101E52004200200050494E4700474554004D4F4430
:101E62004500414E474C45004D494E004D415800FA
:101E72004C4F57004849474800494E564552540076
:101E82004F4E004F4646005341564500524553457A
:021E92005400FA
:00000001FF
