:100000000C9465060C948D060C948D060C948D064C
:100010000C948D060C948D060C948D060C94F3199B
:100020000C948D060C948D060C948D060C948D0604
:100030000C948D060C948D060C948D060C948D06F4
:100040000C94A71A0C948D060C94751A0C944F1AE4
:100050000C948D060C948D060C948D060C948D06D4
:100060000C94F11A0C948D064155544F004D414E9D
:1000700055414C00206D6F64653D00206D757465C1
:10008000643D002076636C6F73653D0020676F6F81
:10009000643D0020636C6F73653D004F4B20434609
:1000A00047206661723D0000000000003E5B4F5B30
:1000B0003E3E6B4F6B3E1C3E7C3E1C183C7E3C180B
:1000C0001C577D571C1C5E7F5E1C00183C1800FFEF
:1000D000E7C3E7FF0018241800FFE7DBE7FF30481D
:1000E0003A060E2629792926407F050507407F0517
:1000F000253F5A3CE73C5A7F3E1C1C08081C1C3E0E
:100100007F14227F22145F5F005F5F06097F017FFB
:10011000006689956A606060606094A2FFA294089E
:10012000047E040810207E201008082A1C08081CE1
:100130002A08081E101010100C1E0C1E0C30383E21
:100140003830060E3E0E06000000000000005F0082
:10015000000007000700147F147F14242A7F2A124E
:100160002313086462364956205000080703000034
:100170001C2241000041221C002A1C7F1C2A080866
:100180003E08080080703000080808080800006079
:10019000600020100804023E5149453E00427F4065
:1001A0000072494949462141494D331814127F10C4
:1001B00027454545393C4A4949314121110907360E
:1001C00049494936464949291E00001400000040AB
:1001D00034000000081422411414141414004122A5
:1001E000140802015909063E415D594E7C12111254
:1001F0007C7F494949363E414141227F4141413E50
:100200007F494949417F090909013E414151737FB5
:100210000808087F00417F41002040413F017F08DE
:100220001422417F404040407F021C027F7F04082F
:10023000107F3E4141413E7F090909063E4151215F
:100240005E7F09192946264949493203017F010386
:100250003F4040403F1F2040201F3F4038403F6309
:100260001408146303047804036159494D43007F63
:100270004141410204081020004141417F04020134
:1002800002044040404040000307080020545478D6
:10029000407F284444383844444428384444287F24
:1002A000385454541800087E090218A4A49C787F7E
:1002B0000804047800447D40002040403D007F1049
:1002C00028440000417F40007C047804787C0804C6
:1002D00004783844444438FC18242418182424187A
:1002E000FC7C08040408485454542404043F442467
:1002F0003C4040207C1C2040201C3C4030403C4482
:10030000281028444C9090907C4464544C4400083D
:10031000364100000077000000413608000201026B
:1003200004023C2623263C1EA1A161123A40402033
:100330007A385454555921555579412254547842AC
:10034000215554784020545579400C1E5272123970
:100350005555555939545454593955545458000029
:10036000457C410002457D420001457C407D1211E3
:10037000127DF0282528F07C545545002054547CEB
:10038000547C0A097F4932494949323A4444443A43
:10039000324A4848303A4141217A3A424020780076
:1003A0009DA0A07D3D4242423D3D4040403D3C2419
:1003B000FF2424487E4943662B2FFC2F2BFF09295D
:1003C000F620C0887E090320545479410000447D02
:1003D000413048484A32384040227A007A0A0A724C
:1003E0007D0D19317D2629292F28262929292630F6
:1003F000484D4020380808080808080808382F1019
:10040000C8ACBA2F102834FA00007B000008142A68
:10041000142222142A14085500550055AA55AA552D
:10042000AAFF55FF55FF000000FF00101010FF004D
:10043000141414FF001010FF00FF1010F010F0143F
:100440001414FC001414F700FF0000FF00FF141444
:10045000F404FC141417101F10101F101F14141490
:100460001F00101010F0000000001F101010101FCF
:1004700010101010F010000000FF101010101010DD
:10048000101010FF10000000FF140000FF00FF001C
:10049000001F10170000FC04F41414171017141494
:1004A000F404F40000FF00F714141414141414F7E7
:1004B00000F7141414171410101F101F141414F440
:1004C000141010F010F000001F101F0000001F1487
:1004D000000000FC140000F010F01010FF10FF14DA
:1004E0001414FF141010101F00000000F010FFFF84
:1004F000FFFFFFF0F0F0F0F0FFFFFF000000000052
:10050000FFFF0F0F0F0F0F3844443844FC4A4A4A8C
:10051000347E02020606027E027E02635549416372
:100520003844443C04407E201E2006027E0202998C
:10053000A5E7A5991C2A492A1C4C7201724C304A25
:100540004D4D303048784830BC625A463D3E4949AE
:1005500049007E0101017E2A2A2A2A2A44445F4456
:100560004440514A444040444A51400000FF010386
:10057000E080FF000008086B6B0836123624360650
:100580000F090F060000181800000010100030407E
:10059000FF0101001F01011E00191D1712003C3C44
:1005A0003C3C0000000000000103070F1F3F7F00DC
:1005B00080C0E0F0F8FCFE0000000800020100002E
:1005C00003040700000000000000000000000024F9
:1005D0000027002A00DB40A4A62EAF2000A1C8D32C
:1005E00000408DAED580A800006000000000000033
:1005F0000000000000000000E0000000000000001B
:1006000000000000000001E0000000000000000009
:10061000000000000001F0000000000000000000E9
:100620000000000003F000000000000000000000D7
:1006300000000007F00000000000000000000000C3
:10064000000007F8000000000000000000000000AB
:10065000000FF800000003C0007E000001E0007FF2
:100660000FF800000003C000FE000001E000FFEFF3
:10067000F800000003C000FE000001E000FFFFF8EA
:1006800000000003C000F00000000F007FFE7FC0EC
:10069000000003C000F00000000F003FFE7FF83FA5
:1006A000F1FBCFFCFEF3BC3DEFE01FFE7FFF7FFBC5
:1006B000FFDFFEFEFFBC3DEFE01FC6FFFF7FFBFF3D
:1006C000DFFEFEFFBC3DEFE00FE3C7FE787BC3DE3D
:1006D0001EF0FFBC3DEF0007FF87FC787BC3DE1EEA
:1006E000F0F83C3DEF0001FFFFF0007BC3C01EF0BF
:1006F000F03C3DEF0001F37FE03FFBC3CFFEF0F0A5
:100700003C3DEF0003E33F807FFBC3DFFEF0F03CA6
:100710003DEF0007E73C00787BC3DE1EF0F03C3D78
:10072000EF0007FFBE00787BC3DE1EF0F03C3DEF1C
:100730000007FFFE00787BC3DE1EF0F03C3DEF00BB
:100740000FFFFE007FFBFFDFFEF0F03FFDEFE00F4D
:10075000FFFF007FFBFFDFFEF0F03FFDEFE00FF952
:10076000FF003E79F9CF9EF0F01F3DE7E01FF1FF5B
:100770000000000000000000000000001F80FF00DB
:100780007FFFFFFFFFFFFFFFFFFFE01C007F007FF9
:10079000FFFFFFFEB46D888D18E000001F007FFF93
:1007A000FFFFFE95AD7DB577E000000F007FFFFFF6
:1007B000FFFEA5AD9D8D19E0000006007FFFFFFF45
:1007C000FEB5ADEDB57EE000000000000180000048
:1007D0000000000000000003800000000000000096
:1007E000000007C000000000000000000007C0007B
:1007F00000000000000000000FC00000000000002A
:100800000000001FE00000000000000000001FE0EA
:100810000000000000000000003FE00000000000B9
:10082000000000003FF00000000000000000007F1A
:10083000F0000000000000001FF87FF00000000042
:100840000000003FFE7FF0000000000000003FFFBE
:100850007FF0000000000000001FFFFBE000000030
:10086000000000000FFFF9FFC00000000000000FB3
:10087000FFF9FFF800000000000007FFF1FFFF0094
:10088000000000000003FC73FFFF80000000000078
:1008900001FE3FFFFF80000000000000FF1E0FFF71
:1008A000000000000000007FFE1FFC0000000000B0
:1008B00000003FFFFFF8000000000000000FDFFF16
:1008C000E0000000000000001F19FFC00000000051
:1008D0000000003F3CFF00000000000000007E7CA4
:1008E000F800000000000000007FFE7C0000000017
:1008F00000000000FFFFFC0000000000000000FFFF
:10090000FFFE0000000000000000FFFFFE000000EE
:100910000000000001FFEFFE0000000000000001E9
:10092000FFCFFE0000000000000003FF07FE0000F4
:10093000000000000003FC07FE00000000000000B3
:1009400003F003FE00000000000000018000FE0034
:100950000000000000000000007E00000000000019
:10096000000000003E000000000000000000000C3D
:10097000000000000000078000FC000003C0000031
:1009800000078001FC000003C0000000078001FC9C
:10099000000003C0000000078001E00000001E000E
:1009A0000000078001E00000001E007FE3F79FF9D0
:1009B000FDE7787BDFC0FFF7FFBFFDFDFF787BDF42
:1009C000C0FFF7FFBFFDFDFF787BDFC0F0F787BCFE
:1009D0003DE1FF787BDE00F0F787BC3DE1F0787BFE
:1009E000DE0000F787803DE1E0787BDE007FF7875F
:1009F0009FFDE1E0787BDE00FFF787BFFDE1E07857
:100A00007BDE00F0F787BC3DE1E0787BDE00F0F7AD
:100A100087BC3DE1E0787BDE00F0F787BC3DE1E09C
:100A2000787BDE00FFF7FFBFFDE1E07FFBDFC0FF6B
:100A3000F7FFBFFDE1E07FFBDFC07CF3F39F3DE10B
:100A4000E03E7BCFC000000000000000000000007E
:100A5000FFFFFFFFFFFFFFFFFFFFC0FFFFFFFFFDE7
:100A600068DB111A31C0FFFFFFFFFD2B5AFB6AEF55
:100A7000C0FFFFFFFFFD4B5B3B1A33C0FFFFFFFFD3
:100A8000FD6B5BDB6AFDC023207061726B696E6772
:100A90005F73657269616C207265616479005245AB
:100AA00041445900455252206F6C656420696E695B
:100AB00074206661696C65640023207761726E2022
:100AC0007468726573686F6C6473206E6F742064F1
:100AD000657363656E64696E672C20736F6D652046
:100AE0007A6F6E657320756E726561636861626CA2
:100AF000650045525220756E6B6E6F776E20636F86
:100B00006D6D616E64004F4B205341564544004566
:100B10005252207573616765204D555445204F4EE4
:100B20007C4F4646004F4B2042555A5A0045525280
:100B3000206D73206F7574206F662072616E67651B
:100B400020312E2E353030300045525220667265ED
:100B500071206F7574206F662072616E6765203337
:100B6000312E2E353030300045525220757361677A
:100B7000652042555A5A203C667265713E203C6D94
:100B8000733E004F4646004F4E004F4B204C4544AD
:100B9000200045525220736574204D4F4445204D2E
:100BA000414E55414C206669727374004552522083
:100BB0007573616765204C4544204F4E7C4F464617
:100BC0007C4155544F004F4B204C454420415554D7
:100BD0004F00455252207573616765204D4F444563
:100BE000204155544F7C4D414E55414C0045525289
:100BF000207573616765204D4F4445204155544F22
:100C00007C4D414E55414C0045525220756E6B6EE5
:100C10006F776E207A6F6E650045525220636D20AB
:100C20006F7574206F662072616E676520312E2E9D
:100C3000343030004552522075736167652053454A
:100C400054203C4641527C434C4F53457C474F4FC8
:100C5000447C56434C4F53453E203C636D3E004F11
:100C60004B20504F4E470000000000230026002973
:100C7000004D55004D414E0020636D002D2D2D007F
:100C800044697374616E63653A2000542000220049
:100C9000FF21000102040810204080010204081016
:100CA0002001020408102000000000250028002B6D
:100CB0000004040404040404040202020202020305
:100CC000030303030302551CD72411241FBECFEFD7
:100CD000D8E0DEBFCDBF23E0ACECB1E001C01D9297
:100CE000AD3EB207E1F711E0A0E0B1E0E4E4F2E5E7
:100CF00002C005900D92AC3CB107D9F716E0C4E6EE
:100D0000D6E004C02197FE010E94CB27C336D1074D
:100D1000C9F70E94D81C0C9415290C940000089562
:100D200008950895DC01ED91FC910190F081E02D92
:100D30000994EF92FF920F931F93CF93DF938C014F
:100D40007B01D0E0C0E0F701EC0FFD1F649166234A
:100D500061F0D801ED91FC910190F081E02DC80186
:100D60000995892B11F02196EECFCE01DF91CF911D
:100D70001F910F91FF90EF900895AF92BF92CF9285
:100D8000DF92EF92FF920F931F93CF93DF936C014B
:100D90007B018B01040F151FEB015E01AE18BF082C
:100DA000C017D10759F06991D601ED91FC910190DE
:100DB000F081E02DC6010995892B79F7C501DF91F6
:100DC000CF911F910F91FF90EF90DF90CF90BF9048
:100DD000AF900895FC01538D448D252F30E0842F72
:100DE00090E0821B930B541710F0CF960895019753
:100DF0000895FC01918D828D981761F0A28DAE0F40
:100E0000BF2FB11D5D968C91928D9F5F9F73928FC6
:100E100090E008958FEF9FEF0895FC01918D828DF2
:100E2000981731F0828DE80FF11D858D90E00895BF
:100E30008FEF9FEF0895FC01918D228D892F90E017
:100E4000805C9F4F821B91098F73992708958EEFC5
:100E500092E00E941B0721E0892B09F420E0822FF9
:100E6000089580E090E0892B29F00E9427078111E6
:100E70000C9400000895FC01A48DA80FB92FB11D9A
:100E8000A35ABF4F2C91848D90E001968F739927C0
:100E9000848FA689B7892C93A089B1898C9183709E
:100EA00080648C93938D848D981306C00288F38997
:100EB000E02D80818F7D80830895EF92FF920F93C4
:100EC0001F93CF93DF93EC0181E0888F9B8D8C8DF6
:100ED00098131AC0E889F989808185FF15C09FB7EA
:100EE000F894EE89FF896083E889F98980818370AD
:100EF000806480839FBF81E090E0DF91CF911F915C
:100F00000F91FF90EF900895F62E0B8D10E00F5F7C
:100F10001F4F0F731127E02E8C8D8E110CC00FB652
:100F200007FCFACFE889F989808185FFF5CFCE01EA
:100F30000E943B07F1CFEB8DEC0FFD2FF11DE35A23
:100F4000FF4FF0829FB7F8940B8FEA89FB8980816D
:100F50008062CFCFCF93DF93EC01888D8823B9F0E7
:100F6000AA89BB89E889F9898C9185FD03C08081B4
:100F700086FD0DC00FB607FCF7CF8C9185FFF2CF31
:100F8000808185FFEDCFCE010E943B07E9CFDF9145
:100F9000CF91089590E0FC01E954FA4F2491FC01AF
:100FA000ED56F34F3491FC01EF54F34FE491EE23EF
:100FB000C9F0222339F0233001F1A8F4213019F1CE
:100FC000223029F1F0E0EE0FFF1FE955F34FA59114
:100FD000B4918FB7F894EC91611126C030953E23FF
:100FE0003C938FBF08952730A9F02830C9F02430F2
:100FF00049F7809180008F7D03C0809180008F77BA
:1010000080938000DFCF84B58F7784BDDBCF84B53C
:101010008F7DFBCF8091B0008F778093B000D2CFCF
:101020008091B0008F7DF9CF3E2BDACF90910401F3
:1010300089130BC0E5ECFCE0E4919FEF9093040171
:10104000E13049F028F0E23061F060E00C94CA072A
:1010500010926E00FACF90916F009D7F90936F0079
:10106000F4CF909170009D7F9093700091E09093E9
:10107000B0009091B100987F94609093B10010926D
:10108000B300E3CFCF93DF9390E0FC01ED56F34F35
:1010900024918F54934FFC0184918823D1F090E0E8
:1010A000880F991FFC01E553FA4FA591B491FC01FB
:1010B000E955F34FC591D49161110EC09FB7F894D3
:1010C0008C91E22FE0958E238C932881E223E88394
:1010D0009FBFDF91CF9108958FB7F894EC91E22BE9
:1010E000EC938FBFF6CF8F929F92AF92BF92CF9229
:1010F000DF92EF92FF92CF936C01809104018730D1
:1011000069F08F3F09F470C0CF91FF90EF90DF90AE
:10111000CF90BF90AF909F908F900895E5ECFCE04A
:10112000C491C7FDF1CF61E087E00E944208CC2363
:1011300019F0C23009F022C1F12CE12C60E072E11B
:101140008AE790E0A70196010E94AC2749015A0165
:10115000DA01C9010197A109B1098F3F9105A105E4
:10116000B10509F00CF4EEC060E472E48FE090E0A9
:10117000A70196010E94AC2721503109410951096C
:10118000C23009F0A0C082E02F3F31054105510572
:1011900009F00CF488C160E970ED83E090E0A701EC
:1011A00096010E94AC27215031094109510983E081
:1011B0002F3F31054105510509F00CF474C168E475
:1011C00078EE81E090E0A70196010E94AC272150C3
:1011D0003109410951092F3F31054105510511F0F0
:1011E0000CF08FC084E05FC187E080930401E5ECE0
:1011F000FCE0C491CF3F09F487CFC13021F150F01A
:10120000C23009F43EC0C7FD7FCF61E087E00E9495
:1012100042088FCF14BC15BC84B5826084BD85B5EF
:10122000816085BDE8EBFCE0E491F0E0EE0FFF1F8C
:10123000E955F34F85919491EAE9FCE0E491E0935C
:10124000F102C0E070CF1092800010928100809176
:10125000810088608093810080918100816080930B
:101260008100E8EBFCE0E491F0E0EE0FFF1FE955B0
:10127000F34F85919491EAE9FCE0E491E093F00268
:1012800052CF1092B0001092B1008091B0008260F5
:101290008093B0008091B10081608093B100E8EB51
:1012A000FCE0E491F0E0EE0FFF1FE955F34F85916C
:1012B00094919093EF028093EE02EAE9FCE0E491CE
:1012C000E093ED0230CF2F3F31054105510509F084
:1012D0000CF452C068E478EE81E090E0A70196013A
:1012E0000E94AC272150310941095109CC2309F44E
:1012F000AFC02F3F31054105510511F00CF0B0C0D2
:1013000071CF64E274EF80E090E0A70196010E9443
:10131000AC27215031094109510985E02F3F3105A2
:101320004105510509F008F4BEC062E17AE780E0AA
:1013300090E0A70196010E94AC2721503109410994
:1013400051099CC09C0181E0C111ADC095B5987F49
:10135000892B85BD27BD8FEF9FEFDC018093FA02BB
:101360009093FB02A093FC02B093FD0280916E006B
:10137000826080936E00C8CE82E0E6CFF12CE12C33
:1013800060E072E18AE790E0A70196010E94AC2735
:10139000215031094109510991E02115310581E0C0
:1013A000480751056CF068E478EE81E090E0A70111
:1013B00096010E94AC27215031094109510993E05F
:1013C000C13009F076C080918100887F892B80939D
:1013D000810030938900209388008FEF9FEFDC011C
:1013E0008093F6029093F702A093F802B093F9026B
:1013F00080916F00826080936F0086CE2093B3004F
:101400008FEF9FEFDC018093F2029093F302A093A1
:10141000F402B093F50280917000826080937000B6
:1014200073CE84E02F3F31054105510509F008F4E2
:101430008DCF9AE0B594A794979487949A95D1F715
:10144000A5019401215031094109510985E07ECF60
:1014500083E02F3F31054105510509F00CF476CFAB
:1014600062E17AE780E090E0A70196010E94AC2754
:101470002150310941095109CC2399F286E02F3FCF
:1014800031054105510579F070F08AE0B594A794D3
:10149000979487948A95D1F7A50194012150310939
:1014A0004109510987E09091B100987F892B809381
:1014B000B100C13009F48DCFC23009F49FCFC11102
:1014C00023CE48CF3FB7F89480917D0290917E0261
:1014D000A0917F02B091800226B5A89B05C02F3F46
:1014E00019F00196A11DB11D3FBFBA2FA92F982F4A
:1014F0008827BC01CD01620F711D811D911D42E045
:10150000660F771F881F991F4A95D1F708958F920C
:101510009F92AF92BF92CF92DF92EF92FF924B01D8
:101520005C010E94620A6B017C010E94620A6C19D4
:101530007D098E099F09683E734081059105A8F3D6
:1015400021E0821A9108A108B10888EEC80E83E054
:10155000D81EE11CF11C81149104A104B10429F7E7
:10156000FF90EF90DF90CF90BF90AF909F908F90C3
:101570000895EF92FF920F931F93CF93DF93EC01A7
:10158000EC80FD806E157F050CF070C057FF04C025
:10159000240F351F50E040E08E819F81FA01E20F59
:1015A000F31F8E179F071CF49C01241B350B12168A
:1015B00013060CF05BC0922F842F86958695869536
:1015C0008E9DD0018F9DB00D11246A0F7B1FAF8DB2
:1015D000B8A1A60FB71F477049F188E0841B482FB8
:1015E000682F70E0FB01E155FA4FE491281708F0ED
:1015F00063C0621B71092FEF30E002C0359527955B
:101600006A95E2F7E2230130110539F0B0F10230BA
:10161000110561F58C91E82702C08C91E82BEC93C1
:10162000941720F12C813D81A20FB31FE92FE41BF9
:10163000E83078F00230110521F58E2F9C919095BD
:101640009C932C813D81A20FB31F88508830B0F746
:10165000E770EE2359F0F0E0E955FA4FE4910130DC
:101660001105F9F010F10230110519F1DF91CF9158
:101670001F910F91FF90EF900895E0958C91E823D2
:10168000CECF81E00115110509F480E081959E2FF0
:101690008C932C813D81A20FB31F98509830C0F7D6
:1016A000D7CF8C91E82BEC93E1CFE0958C91E82398
:1016B000FACF8C91E827F7CF0130110509F4ADCFAF
:1016C000E0F20230110509F4A5CFAE0DBF1DAECF7B
:1016D0000F931F93CF93DF9377FF04C0260F371F1D
:1016E00070E060E0DC011496CD91DC91FB01E20F2B
:1016F000F31FCE17DF071CF49E01261B370B1216B3
:1017000013064CF5FA0157FD3796A3E0F595E795DA
:10171000AA95E1F7EC9FD001ED9FB00DFC9FB00DB5
:1017200011246A0F7B1FDC015F96ED91FC91E60F9F
:10173000F71F4770552781E090E001C0880F4A9558
:10174000EAF7482F0130110559F0A8F02E0F3F1F7E
:1017500002301105E1F0DF91CF911F910F910895B3
:101760002E0F3F1FE217F307B1F38191DF011197AD
:10177000842B8C93F7CF80952E0F3F1FE217F30732
:1017800051F39191DF01119798239C93F7CFE217C2
:10179000F30709F38191DF01119784278C93F7CF29
:1017A0000F931F93FA01DC0156964C9156974230E5
:1017B000E9F04330A1F1413061F514964D915C910F
:1017C000DA01AE1BBF0BFD01E21BF30B77FD0BC073
:1017D000DC0116964D915C916417750724F4AB01FA
:1017E000BF010E94680B1F910F91089514964D91AF
:1017F0005C91DA01A61BB70BBD0161507109DC01D8
:1018000016964D915C91DA01AE1BBF0BFD01E21BF8
:10181000F30B77FDE8CFAF010E94B90AE4CF16962B
:101820004D915C91DA01A61BB70BBD0161507109A6
:10183000CDCF0F931F93FA01DC0156964C9156972A
:101840004230A9F0433091F1413019F514964D9191
:101850005C91DA01AE1BBF0BFD013197F7FD04C0AF
:10186000AB01BF010E94B90A1F910F910895149610
:101870004D915C91DA01A61BB70BBD01DC011696F8
:101880004D915C91DA01AE1BBF0BFD013197621BDC
:10189000730BF7FDE9CFDC0116964D915C91E417CF
:1018A000F50714F7AF010E94680BDECF16964D9135
:1018B0005C91DA01A61BB70BBD01621B730BCECF87
:1018C000FC0177FD64C080859185681779070CF06D
:1018D0005EC057FD5CC082859385481759070CF0A0
:1018E00056C086898230B1F0833029F1813041F4CD
:1018F00084819581841B950BAB01BC0161507109FA
:101900002130310509F108F443C02230310509F4D2
:1019100063C0089584819581DC01A61BB70BBD01CE
:101920006150710986819781DC01A41BB50BAD0163
:1019300041505109E5CF86819781861B970BBA01EB
:10194000AC0141505109DCCFCA0157FD0796A3E015
:1019500095958795AA95E1F7A481B5818A9F900115
:101960008B9F300D9A9F300D1124620F731F078CCF
:10197000F0A1E02DE60FF71F4770552721E030E07A
:1019800001C0220F4A95EAF78081822B8083089557
:10199000CA0157FD079633E0959587953A95E1F78B
:1019A000A481B5818A9F90018B9F300D9A9F300D45
:1019B0001124620F731F078CF0A1E02DE60FF71FB3
:1019C0004770552781E090E001C0880F4A95EAF7FB
:1019D000809590818923DACFCA0157FD079623E0CD
:1019E000959587952A95E1F7A481B5818A9F900105
:1019F0008B9F300D9A9F300D1124620F731F078C3F
:101A0000F0A1E02DE60FF71F4770552721E030E0E9
:101A100001C0220F4A95EAF780818227B7CF089547
:101A20008EBD00000DB407FEFDCF8EB508958CBDB0
:101A30009DBD08950895FC016370668B8481958136
:101A400026813781613039F0633029F091878087B2
:101A50003387228708953187208793878287089567
:101A60002F923F924F925F926F927F928F929F92AE
:101A7000AF92BF92CF92DF92EF92FF920F931F939C
:101A8000CF93DF93CDB7DEB76A970FB6F894DEBF7A
:101A90000FBECDBF9A8F898F7A8369834A01D22E78
:101AA00018870F833701BC2CDC0159962D913C918E
:101AB0005A972115310509F015C118968D919C9101
:101AC0001997681779070CF0D7C11A968D919C91D8
:101AD000481759070CF0D0C14C2C512CB6E0CB9EC6
:101AE000600D711D11247C876B87161617060CF08C
:101AF000C3C1EA2DF0E0FA87E98793E0EE0FFF1FFC
:101B00009A95E1F7F88BEF87CF01840F951F181690
:101B100019060CF0B1C1A98DBA8D58968C9181111E
:101B200004C0BFEABD1508F4D394A98DBA8DED9118
:101B3000FC9111970284F385E02DCD010995B5E064
:101B4000DB9EC0011124E981FA81FC83EB83312CF7
:101B5000212C9C0129553F4F388F2F8B4A2D50E067
:101B60005E8B4D8BEF89F88DE20DF31D44919E82C3
:101B70008D82D12CC12C69817A81620D731D7A8B83
:101B8000698B842F90E09C8B8B8BE98DFA8DA081E3
:101B9000B18140FF82C0F1E0BF126FC0AF126DC0D3
:101BA0001C96ED91FC912F813885A4014C0D5D1D93
:101BB00069897A89898D9A8D0995EB89FC89F595D2
:101BC000E7954E2F5FEFC51AD50A6D817E818D890D
:101BD0009E89680F791F7E836D8398E0C916D104B2
:101BE00081F6AFEF2A1A3A0AEB81FC81E40DF51D6C
:101BF000FC83EB83F5E02F16310409F0B3CF2F817E
:101C0000388526153705B9F0A98DBA8DED91FC916F
:101C1000B1E0BB1257C0AB1255C069817A816B5FCE
:101C20007F4F0088F189E02D830128E030E0A40196
:101C3000898D9A8D0995A98DBA8DED91FC91119799
:101C40000688F789E02DCD016A960FB6F894DEBFBD
:101C50000FBECDBFDF91CF911F910F91FF90EF90FD
:101C6000DF90CF90BF90AF909F908F907F906F90BC
:101C70005F904F903F902F9009941E96ED91FC91AC
:101C8000EF80F88409851A8592014D815E816B8110
:101C90007C81898D9A8D099590CF2F813885261565
:101CA000370509F48ACF31E0B31207C0A31205C08B
:101CB0001C96ED91FC91930178CF1E96ED91FC91CD
:101CC0007301E0CF6B857C85641975090684F785FF
:101CD000E02D73010F8518899201A401898D9A8DD9
:101CE0000995A9CFF9013496949132974591549171
:101CF000D91AB7E0DB9E400D511D1124F901259141
:101D000034913C8B2B8BFA0125903490FA0132965A
:101D1000749031963491398B329664903196449018
:101D200041E04C1518F04A1508F07FC0662D062CCE
:101D3000000C770B7C836B83842D042C000C990B97
:101D40009E838D83A98DBA8DED91FC9111970284AC
:101D5000F385E02DCD010995512CD12CC12CEA2D14
:101D6000F0E0FA87E9872B2D30E03C872B87A40130
:101D7000440D511D47FC5A95588F4F8B69817A81CC
:101D8000660D711D67FC7A957E876D877989C71608
:101D900008F051CF2C2D30E04D815E81420F531F52
:101DA000A985BA854A9FC0014B9F900D5A9F900DFF
:101DB0001124FC01E80DF91DF88BEF87852D612CAE
:101DC0004F89588D420F531F5E8B4D8B671408F05F
:101DD00050C044244394480E877041F4C1010196D9
:101DE000EB89FC89E20DF31DD4901C01D7FE19C0CC
:101DF000A98DBA8DED91FC91662D70E0B1E0BB121A
:101E000019C0AB1217C02D853E85620F731F048465
:101E1000F585E02D2F8138854D895E89898D9A8DD4
:101E20000995DD0C6394842DD1CF1E821D821C8206
:101E30001B8288CF4B815C81640F751FAB85BC858D
:101E40006A9FC0016B9F900D7A9F900D112469814C
:101E50007A81680F791F0684F785E02DEF80F8847A
:101E600009851A859D014F855889898D9A8D099517
:101E7000D8CF570CC3948ACF6A960FB6F894DEBFBA
:101E80000FBECDBFDF91CF911F910F91FF90EF90CB
:101E9000DF90CF90BF90AF909F908F907F906F908A
:101EA0005F904F903F902F9008958F929F92AF92A6
:101EB000CF92EF92FF920F931F93CF93DF93EC019A
:101EC000262F898D9A8D009709F051C06A30D1F480
:101ED0001D861C868D8948E0849F900111248E8583
:101EE0009F85820F931F9F878E8781E090E0DF910F
:101EF000CF911F910F91FF90EF90CF90AF909F9057
:101F00008F9008956D3089F3CC88AD888F898823B0
:101F1000C1F08C859D8536E0C39E800D911D1124F6
:101F2000488559854817590764F44E855F851D8695
:101F30001C8638E0A39EC0011124840F951F9F8743
:101F40008E87EA88FB88088919894E855F856C85AC
:101F50007D85CE010E94300D2C898C859D8546E0C3
:101F6000249F800D911D11249D878C87BECF6A30E0
:101F700069F41D861C86FC013896E4912D898E85B6
:101F80009F85E29F800D911D1124ADCF6D3009F426
:101F9000ACCFFC0134963491631708F4A6CF329687
:101FA000E491E61708F4A1CFFC0132968590949055
:101FB000462F431B342F47E0349F800C911C112483
:101FC000F401329634913196E4913323A9F1EE2352
:101FD00099F1CC88F4013596E491AD884F8944237A
:101FE00001F10E2E000CFF0BE30FF11DCE9EA001A0
:101FF000CF9E500D11246C857D85460F571F688537
:102000007985641775076CF44E855F851D861C867F
:10201000FC013896E491AE9E400D511D11245F875E
:102020004E87EA88FB88088919894E855F856C850B
:102030007D85CE010E94300DF4013496E4912C8907
:102040008C859D85E29F800D911D11248DCF6F920F
:102050007F928F929F92AF92BF92CF92DF92EF9238
:10206000FF920F931F93CF93DF93EC016B015A0103
:1020700039014801E881F9810284F385E02D099551
:10208000E881F9810288F389E02D87019301A50198
:10209000B601CE010995A501480D591D41505109C0
:1020A000E881F9810288F389E02D9301B601CE0120
:1020B0000995E881F9810088F189E02D9401A50155
:1020C000B601CE010995C60CD71CB6016150710945
:1020D000E881F9810088F189E02D9401A501CE0104
:1020E0000995E881F9810688F789E02DCE01DF9115
:1020F000CF911F910F91FF90EF90DF90CF90BF9005
:10210000AF909F908F907F906F9009946F927F9285
:102110008F929F92AF92BF92CF92DF92EF92FF92F7
:102120000F931F93CF93DF935C01EB016A01490189
:1021300038018701DC01ED91FC916217730719F5F5
:10214000641675062CF0962D872D3A01C92ED82ECF
:102150009601261937092F5F3F4F048CF58DE02D2E
:10216000A301BE01C5010995DF91CF911F910F9188
:10217000FF90EF90DF90CF90BF90AF909F908F90A7
:102180007F906F9008954615570591F426173707ED
:1021900024F0892D4B01C22FD82F9E01281939090F
:1021A0002F5F3F4F068CF78DE02DA601B401DACFEB
:1021B0000284F385E02D0995D501ED91FC91048809
:1021C000F589E02D83019401A601BE01C5010995A1
:1021D000D501ED91FC910688F789E02DC501DF91CD
:1021E000CF911F910F91FF90EF90DF90CF90BF9014
:1021F000AF909F908F907F906F900994EF92FF9295
:102200000F931F93DC011A960D911C911B97189642
:102210002D913C911997ED91FC9100A0F1A1E02D39
:102220007B0150E040E070E060E009951F910F9164
:10223000FF90EF9008954F925F926F927F928F92EE
:102240009F92AF92BF92CF92DF92EF92FF920F9345
:102250001F93CF93DF936C012B015A013901480181
:10226000DC01ED91FC910284F385E02D0995E201FA
:10227000640C751CD601ED91FC91C615D7055CF474
:102280000088F189E02D87019401A501BE01C601F6
:1022900009952196EFCF0688F789E02DC601DF91D9
:1022A000CF911F910F91FF90EF90DF90CF90BF9053
:1022B000AF909F908F907F906F905F904F90099418
:1022C0008F929F92AF92BF92CF92DF92EF92FF9246
:1022D0000F931F93CF93DF93EC015B014A016901D8
:1022E000E881F9810284F385E02D099595012C0D93
:1022F0003D1D21503109E881F9810488F589E02DDF
:1023000078018401A401B501CE010995E881F98124
:102310000688F789E02DCE01DF91CF911F910F91B3
:10232000FF90EF90DF90CF90BF90AF909F908F90F5
:1023300009948F929F92AF92BF92CF92DF92EF92C9
:10234000FF920F931F93CF93DF93EC015B014A0140
:1023500069017801E881F9810284F385E02D09950E
:10236000C80CD91C860101501109E881F981048843
:10237000F589E02D9501A401B501CE010995E8810B
:10238000F9810688F789E02DCE01DF91CF911F9169
:102390000F91FF90EF90DF90CF90BF90AF909F9004
:1023A0008F900994EF92FF920F931F93DC01ED91B0
:1023B000FC9100A0F1A1E02D09951F910F91FF90D4
:1023C000EF9008950F931F93DC01ED91FC91068C23
:1023D000F78DE02D09951F910F9108950F931F938D
:1023E000DC01ED91FC91048CF58DE02D09951F9198
:1023F0000F910895DC01ED91FC910084F185E02DB1
:1024000009943F924F925F926F927F928F929F9228
:10241000AF92BF92CF92DF92EF92FF920F931F93F2
:10242000CF93DF935C017B014A016901390187E0A9
:10243000680E711C93E0759467949A95E1F72B01EF
:10244000400E511E10E000E0312CD0E0C0E0CE0183
:1024500087709927330C892B59F4FE0183E0F59599
:10246000E7958A95E1F7E00FF11FE80DF91D34902B
:1024700037FE0AC021E030E0A701B5016C0F7D1FD7
:1024800087EA93E00E94FA112196CC16DD06F9F650
:102490008FEFE81AF80A060D171DE414F504A9F6E3
:1024A000DF91CF911F910F91FF90EF90DF90CF9030
:1024B000BF90AF909F908F907F906F905F904F9064
:1024C0003F9008952F923F924F925F926F927F922A
:1024D0008F929F92AF92BF92CF92DF92EF92FF9234
:1024E0000F931F93CF93DF9300D000D000D0CDB7D0
:1024F000DEB73C016A013E832D83FC82EB825801EA
:10250000A41AB50AB7FE03C0B194A194B1088D8096
:102510009E80861A970A97FE03C091948194910831
:102520008A149B045CF0902F812F0D811E819D8366
:102530008E839C2D8D2D6B01692F782F0C151D0519
:102540005CF09D818E817E836D83692F782F902F23
:10255000812F8601C92ED82E1601201A310A2B018F
:102560002D813E81421A530A57FE03C05194419473
:102570005108710137FE03C03FEFE31AF30AF594E7
:10258000E7948D819E81861797075CF5A1E0B0E006
:10259000BA83A983C016D1064CF1D301ED91FC9109
:1025A0000484F585E02D2B813C81A8016D817E811D
:1025B0008A149B041CF04D815E81B801C30109950A
:1025C000E418F508F7FE0AC02D813E8189819A81C1
:1025D000280F391F3E832D83E20CF31C0F5F1F4F22
:1025E000D9CF2FEF3FEF3A832983D4CF26960FB66A
:1025F000F894DEBF0FBECDBFDF91CF911F910F9139
:10260000FF90EF90DF90CF90BF90AF909F908F9012
:102610007F906F905F904F903F902F900895089516
:1026200020913202260F3327331F21323105ECF47B
:1026300020915602FC0190E080E0243069F082E0B5
:102640000895A09132022191AC014E5E5D4FA40F1E
:10265000B52FB11D2C930196861798F38091320205
:10266000680F6093320280E0089581E0089510922F
:10267000560281E0809358021092570261E082E195
:102680000E94CA0761E083E10E94CA07E9EBF0E01B
:1026900080818E7F808380818D7F808388E480939A
:1026A000B80085E48093BC000895CF93DF9391E058
:1026B000909311028823B9F0C091B800D091BA006C
:1026C0008091BC008A7B8093BC0060E082E10E9424
:1026D000CA0760E083E10E94CA070E943713D093C3
:1026E000BA00C093B800DF91CF910895E0918702BE
:1026F00080918602E81730F4F0E0E451FE4F8081CB
:1027000090E008958FEF9FEF089590918702809158
:1027100086022FEF3FEF981748F4E92FF0E0E451DD
:10272000FE4F208130E09F5F90938702C90108959A
:102730008091860290918702891B990B0895CF9210
:10274000DF92EF92FF920F931F93CF93DF937C0161
:10275000CB018A012091EC02222389F0EB016B016D
:10276000C40ED51ECC15DD0569F06991D701ED9138
:10277000FC910190F081E02DC7010995F3CF642F02
:102780000E941013C801DF91CF911F910F91FF900C
:10279000EF90DF90CF900895CF93DF931F92CDB746
:1027A000DEB769832091EC022223F9F02091E9023F
:1027B000203258F021E030E0FC013383228390E0A6
:1027C00080E00F90DF91CF9108958091EA02E82F89
:1027D000F0E0E453FE4F998190838F5F8093EA028B
:1027E0008093E90281E090E0ECCF61E0CE010196B8
:1027F0000E941013F7CFCF92DF92EF92FF920F93C8
:102800001F93CF93DF93D091E90281E0D13208F09A
:102810009CC0C091EB020E94620A6B017C01809116
:10282000560281116CC082E08093560281E0809351
:1028300058028FEF8093550210927A02D09379025A
:10284000ACECB1E0E9E5F2E080E0D8138DC0109285
:102850007B0280917B02CC0FC82BC0937B028091BE
:102860005702813009F084C0109257020E94620A18
:102870006B017C0180917B028093BB0080910D02F3
:1028800090910E02A0910F02B0911002892B8A2B19
:102890008B2BA1F00E94620A00910D0210910E0292
:1028A00020910F02309110026C197D098E099F0949
:1028B000061717072807390708F442C08091BC00A3
:1028C00083FDD8CF85EC8093BC000E94620A6B0127
:1028D0007C0180915602823009F44CC080915502EF
:1028E0008F3F09F469C080915502803209F466C0B7
:1028F00080915502803309F463C084E026C0809142
:102900000D0290910E02A0910F02B0911002892B3E
:102910008A2B8B2B09F483CF0E94620A00910D024F
:1029200010910E0220910F02309110026C197D0956
:102930008E099F09061717072807390708F06FCF78
:1029400080910C020E94551385E01092EA021092C9
:10295000E9021092EC02DF91CF911F910F91FF904D
:10296000EF90DF90CF9008959D9191938F5F6DCF01
:1029700085EEA9CF80910D0290910E02A0910F02D9
:10298000B0911002892B8A2B8B2B09F4A2CF0E94C5
:10299000620A00910D0210910E0220910F023091F7
:1029A00010026C197D098E099F0906171707280761
:1029B000390708F08ECFC4CF80E0C7CF82E0C5CF03
:1029C00083E0C3CFEF92FF920F931F93CF93DF93D8
:1029D0007C01C62F8091C4039091C503009709F430
:1029E00059C02091C80331E03093EC022093EB02F0
:1029F0001092EA021092E902DC01ED91FC91019043
:102A0000F081E02D60E009958701EE24E394F12C3C
:102A1000D1E0C1508091C4039091C503CF3F91F1A3
:102A2000B0E2EB16F104D8F00E94FB138091C403CE
:102A30009091C5032091C803D093EC022093EB0240
:102A40001092EA021092E902DC01ED91FC910190F2
:102A5000F081E02D60E00995EE24E394F12C809163
:102A6000C4039091C503F8016491DC01ED91FC91E0
:102A70000190F081E02D0995BFEFEB1AFB0A0F5F83
:102A80001F4FC7CFDF91CF911F910F91FF90EF9014
:102A90000C94FB13E091D403F091D50390818091C5
:102AA000DA038095892380838701C15008F438C0F8
:102AB000F80184912091C2033091C303232B29F0A4
:102AC0000E94100D0F5F1F4FF0CF28E030E040E86C
:102AD000E091D003F091D1039091D803582F542363
:102AE000D9F05081952B9083E091D203F091D303DC
:102AF00090815091D903952B9083E091D203F0916E
:102B0000D30350819091D903909595239083469556
:102B100021503109E9F6D6CF508190959523E3CF26
:102B2000DF91CF911F910F91FF90EF9008951F9328
:102B3000CF93DF93EC018D8D9E8D009721F1162FA1
:102B400029A131E03093EC022093EB021092EA02CB
:102B50001092E902DC01ED91FC910190F081E02DF1
:102B600060E009958D8D9E8DDC01ED91FC910190C9
:102B7000F081E02D612F09958D8D9E8DDF91CF9194
:102B80001F910C94FB13ADA5BEA59C918BA98095BC
:102B900089238C938B8D9C8D892B31F0862FDF912F
:102BA000CF911F910C94100D28E030E080E8A9A58A
:102BB000BAA599A9462F4823C1F04C91942B9C9318
:102BC000ABA5BCA59C914AA9942B9C93ABA5BCA595
:102BD0004C919AA9909594239C9386952150310904
:102BE00031F7DF91CF911F9108954C9190959423E7
:102BF000E6CFDF92EF92FF920F931F93CF93DF9375
:102C00008091C4039091C503892B09F498C0209149
:102C1000DC033091DD034091DE035091DF0360E07F
:102C200074E284EF90E00E948A2720513109410923
:102C3000510956954795379527952093B80065E03B
:102C40008EE89CE00E94E2146091AB03615087EA39
:102C500093E00E9497152091AD033091AE03C90116
:102C6000079697FD079633E0959587953A95E1F796
:102C70002091AB033091AC03829F8001839F100DA4
:102C8000929F100D1124C091C603D091C70380916B
:102C9000C4039091C5030C0F1D1F009709F48FC04A
:102CA0002091C80331E03093EC022093EB021092A4
:102CB000EA021092E902DC01ED91FC910190F081B1
:102CC000E02D60E40995EE24E394F12CDD24D39407
:102CD0008091C4039091C5030C171D0709F446C0E9
:102CE000B0E2EB16F104D8F00E94FB138091C4030C
:102CF0009091C5032091C803D092EC022093EB027F
:102D00001092EA021092E902DC01ED91FC9101902F
:102D1000F081E02D60E40995EE24E394F12C80919C
:102D2000C4039091C5036991DC01ED91FC91019080
:102D3000F081E02D0995BFEFEB1AFB0AC9CF809116
:102D4000C2039091C303892B31F08091E5039091E8
:102D5000E6030E94170DE091D603F091D70390810E
:102D60008091DB0380958923808369CF0E94FB13C8
:102D70008091C4039091C503892B09F461C020910F
:102D8000E0033091E1034091E2035091E30360E0FE
:102D900074E284EF90E00E948A27205131094109B2
:102DA000510956954795379527952093B800DF919F
:102DB000CF911F910F91FF90EF90DF900895E091D8
:102DC000D403F091D50380819091DA03892B80831D
:102DD0000C171D0769F289912091C2033091C3033A
:102DE000232B19F00E94100DF3CF28E030E040E8CB
:102DF000E091D003F091D1039091D803582F542340
:102E0000D9F05081952B9083E091D203F091D303B8
:102E100090815091D903952B9083E091D203F0914A
:102E2000D30350819091D903909595239083469533
:102E300021503109E9F6CCCF508190959523E3CF0D
:102E4000E091D603F091D70380819091DB03892B29
:102E50008083ADCF1F93CF93DF93EC01162F8D8D21
:102E60009E8D892BB1F12DA93EA94FA958AD60E0E7
:102E700074E284EF90E00E948A27205131094109D1
:102E8000510956954795379527952093B80066EADE
:102E9000111167EACE010E9497158D8D9E8D892BA9
:102EA00041F129AD3AAD4BAD5CAD60E074E284EF29
:102EB00090E00E948A272051310941095109569515
:102EC0004795379527952093B800DF91CF911F91B3
:102ED00008958B8D9C8D892B21F08EAD9FAD0E9426
:102EE000170DEFA5F8A990818CA98095892380837F
:102EF000CECFEFA5F8A980819CA9892B8083E5CF4F
:102F000090E080E00895E8ECF2E082EA90E59183B9
:102F1000808384E690E09383828382E390E09583CC
:102F2000848384E190E0978386838AE090E09187B0
:102F30008087128608952091AD033091AE03C901B8
:102F4000079697FD079623E0959587952A95E1F7D3
:102F50002091AB033091AC03829FA001839F500D61
:102F6000929F500D112470E060E08091C603909113
:102F7000C7030C94FB280F931F93CF93DF93009705
:102F8000D9F08B01EC0163E671E00E940229892BE4
:102F900041F481E0F8018083DF91CF911F910F917F
:102FA000089566E671E0CE010E940229892B21F482
:102FB000F801108281E0F0CF80E0EECF0E94F62889
:102FC000FB0101900020E9F73197AF01461B570B39
:102FD000DC01ED91FC910280F381E02D09948F9248
:102FE0009F92AF92BF92EF92FF920F931F93CF9356
:102FF000DF93CDB7DEB7A1970FB6F894DEBF0FBE53
:10300000CDBF7C01FA01CB0119A2223008F42AE0DD
:103010008E010F5D1F4F822E912CB12CA12CBF0170
:10302000A50194010E948A27F901CA016A300CF5B2
:10303000605DD8016E938D01232B242B252B79F70E
:1030400090E080E0109721F0BD01C7010E94E017D9
:10305000A1960FB6F894DEBF0FBECDBFDF91CF9122
:103060001F910F91FF90EF90BF90AF909F908F9026
:103070000895695CDECFCF92DF92EF92FF92CF93FB
:10308000DF936C01990FEE08FF08F7FE1BC06DE29D
:103090008EEF92E00E949206EC0144275527BA0178
:1030A0004C195D096E097F092AE08EEF92E00E94BB
:1030B000EF178C0F9D1FDF91CF91FF90EF90DF9066
:1030C000CF9008952AE0B701A6018EEF92E0DF913C
:1030D000CF91FF90EF90DF90CF900C94EF172F924D
:1030E0003F924F925F926F927F928F929F92AF9298
:1030F000BF92CF92DF92EF92FF921F93CF93DF9315
:10310000EC016A017B01722EAB019601CB01B60185
:103110000E9485276AE671E0811126C046015701A9
:10312000E894B7F82FEF3FEF4FE75FE7C501B40131
:103130000E94852781110CC02FEF3FEF4FE75FE71B
:10314000C501B4010E94BB256EE671E0181664F05B
:103150002FEF3FEF4FE75FE4C701B6010E9413274F
:103160001816B4F462E771E0CE01DF91CF911F91A0
:10317000FF90EF90DF90CF90BF90AF909F908F9097
:103180007F906F905F904F903F902F900C94E0173E
:103190002FEF3FEF4FE75FECC701B6010E94BB2561
:1031A00087FDE0CF20E030E0A901C701B6010E9411
:1031B000BB25312C212C87FF09C06DE2CE010E9476
:1031C00092061C01F7FAF094F7F8F09410E060E032
:1031D00070E080E09FE3711641F020E030E040E2D3
:1031E00051E40E94C0251F5FF6CFA70196010E94FF
:1031F0004F252B013C010E9432264B015C012AE045
:10320000BC01A401CE010E94EF177C01E20CF31C6B
:103210001123C1F1C501B4010E9461269B01AC01DB
:10322000C301B2010E944E254B015C016EE2CE014A
:103230000E949206E80EF91E115020F120E030E0C5
:1032400040E251E4C501B4010E9418272B013C0162
:103250000E9432264B01B12CA12C2AE0B501A40119
:10326000CE010E94EF17E80EF91EC501B4010E94BD
:1032700061269B01AC01C301B2010E944E254B01A6
:103280005C01DACFC701DF91CF911F91FF90EF90E2
:10329000DF90CF90BF90AF909F908F907F906F9076
:1032A0005F904F903F902F9008950F931F93CF936F
:1032B000DF93EC010E9499068C0166E771E0CE0174
:1032C0000E94E017800F911FDF91CF911F910F9106
:1032D00008956BE970E08EEF92E00E94990680916C
:1032E000CA029091CB020E943B1863E970E08EEF16
:1032F00092E00E9499068091CC029091CD020E94AA
:103300003B186CE870E08EEF92E00E949906809185
:10331000CE029091CF020E943B1863E870E08EEFDE
:1033200092E00E9499068091D0029091D1020E9471
:103330003B186BE770E08EEF92E00E94990681E007
:1033400090E02091D202211102C090E080E00E9422
:103350003B1864E770E08EEF92E00E94990680913E
:10336000D30268E670E0882311F06DE670E08EEF1E
:1033700092E00C94551985ED8093BC0080910D026C
:1033800090910E02A0910F02B09110020796A11D1C
:10339000B11D23E0B695A795979587952A95D1F706
:1033A0002091BC0024FD03C0109256020895409164
:1033B0000D0250910E0260910F0270911002452B88
:1033C000462B472B69F30097A105B10541F025E392
:1033D0002A95F1F700000197A109B109E1CF809189
:1033E0000C020C9455131F920F920FB60F921124DA
:1033F0002F933F934F935F936F937F938F939F93FD
:10340000AF93BF93EF93FF938091F2029091F302F9
:10341000A091F402B091F502892B8A2B8B2BD1F16C
:103420009091ED02E091EE02F091EF028081892708
:1034300080838091F2029091F302A091F402B09106
:10344000F502181619061A061B069CF48091F20262
:103450009091F302A091F402B091F5020197A109B5
:10346000B1098093F2029093F302A093F402B09317
:10347000F502FF91EF91BF91AF919F918F917F9155
:103480006F915F914F913F912F910F900FBE0F90D1
:103490001F901895809104010E941608EACF1F9290
:1034A0000F920FB60F9211242F933F934F935F9378
:1034B0006F937F938F939F93AF93BF93EF93FF93FC
:1034C0008EEF92E00E943B07FF91EF91BF91AF9189
:1034D0009F918F917F916F915F914F913F912F912C
:1034E0000F900FBE0F901F9018951F920F920FB65E
:1034F0000F9211242F938F939F93EF93FF93E0915B
:103500000E03F0910F038081E0911403F0911503F5
:1035100082FD1BC09081809117038F5F8F73209174
:103520001803821741F0E0911703F0E0E250FD4FDD
:10353000958F80931703FF91EF919F918F912F911A
:103540000F900FBE0F901F9018958081F4CF1F929F
:103550000F920FB60F9211242F933F938F939F9347
:10356000AF93BF938091880290918902A0918A02C3
:10357000B0918B0230917C0223E0230F2D3758F558
:103580000196A11DB11D20937C0280938802909327
:103590008902A0938A02B0938B0280917D02909160
:1035A0007E02A0917F02B09180020196A11DB11D03
:1035B00080937D0290937E02A0937F02B09380025D
:1035C000BF91AF919F918F913F912F910F900FBE1F
:1035D0000F901F90189526E8230F0296A11DB11D8C
:1035E000D2CF1F920F920FB60F9211242F933F93B9
:1035F0004F935F936F937F938F939F93AF93BF93FB
:10360000EF93FF938091B900887F803609F44AC018
:10361000F0F5883209F4A7C018F5803109F49BC091
:10362000B8F4882309F4F9C0883009F494C0FF91F4
:10363000EF91BF91AF919F918F917F916F915F912A
:103640004F913F912F910F900FBE0F901F901895A3
:10365000883109F488C0803251F78093550214C034
:10366000803409F49DC040F48033B9F38833F9F60F
:103670008093550285ECB0C0803509F485C088354B
:1036800009F496C0883499F60E94BB19D0CF8839C6
:1036900009F48CC038F5883729F050F4883611F0D9
:1036A000803729F683E0809356021092540257C067
:1036B000883809F47BC0803919F0803809F0B7CF19
:1036C00080915402803208F071C0E091540281E090
:1036D0008E0F809354028091BB00F0E0EC5CFD4FB4
:1036E00080833DC0803B39F0E0F4803A09F479C032
:1036F000883A09F09CCF84E08093560210923302FE
:1037000010923202E0918402F09185020995809135
:10371000320281110FC081E08093320210921202B6
:1037200009C0803C09F4A6CF883C09F4A3CF883BAC
:1037300009F07DCFE091330281E08E0F8093330258
:10374000F0E0EE5EFD4F80818093BB0090913302EC
:103750008091320229C080917B028093BB0085EC6E
:103760008093BC0064CF90917A028091790298177F
:1037700058F5E0917A0281E08E0F80937A02F0E0B2
:10378000E75AFD4F8081E9CFE0917A0281E08E0F08
:1037900080937A028091BB00F0E0E75AFD4F80836E
:1037A00090917A02809179029817C8F285E8D8CF73
:1037B000E0917A0281E08E0F80937A028091BB00C3
:1037C000F0E0E75AFD4F80838091580281115CCF71
:1037D00081E08093570284EA8093BC0010925602E5
:1037E00026CF85EC8093BC00109256028091540243
:1037F000803230F4E0915402F0E0EC5CFD4F108236
:103800006091540270E0E0918202F091830284E3BF
:1038100092E00995109254020ACF1092550234CFCB
:10382000CF92DF92EF92FF920F931F93E82FF92F21
:1038300005C0015011092109310961F190819623D8
:103840009417B9F305C0015011092109310911F18B
:10385000908196239413F7CFC12CD12CE12CF12C1D
:103860000AC08FEFC81AD80AE80AF80A0C151D0515
:103870002E053F0579F080818623841791F36C2D06
:103880007D2D8E2D9F2D1F910F91FF90EF90DF903A
:10389000CF90089560E070E080E090E01F910F917C
:1038A000FF90EF90DF90CF900895EEEFF2E013825B
:1038B000128248EE53E060E070E0448355836683F3
:1038C000778387E191E09183808385EC90E0958711
:1038D000848784EC90E09787868780EC90E0918BDA
:1038E000808B81EC90E0938B828B82EC90E0958BC7
:1038F000848B86EC90E0978B868B118E128E138EC4
:10390000148EABE9B3E013961C921E921297149694
:103910004D935D936D937C93179789E291E0119697
:103920009C938E93E7EAF3E01382128220E830E062
:103930003583248380E290E09783868331872087D4
:1039400093878287168A158614861786168681E0E5
:10395000858B848B2FEF3FEF338B228B318B208B2A
:10396000878B108E128E118E8BE391E09183808372
:10397000148E138EB68FA58F10A2178E8FEF84A38F
:1039800085A386A387A380A780E89AE1A6E0B0E09C
:1039900085AB96ABA7ABB0AF80EA96E8A1E0B0E00C
:1039A00081AF92AFA3AFB4AF80E586AF17AE0895F5
:1039B000CF93DF931F92CDB7DEB7789484B5826042
:1039C00084BD84B5816084BD85B5826085BD85B5C3
:1039D000816085BD80916E00816080936E00109241
:1039E00081008091810082608093810080918100BC
:1039F000816080938100809180008160809380004D
:103A00008091B10084608093B1008091B0008160AA
:103A10008093B00080917A00846080937A008091D6
:103A20007A00826080937A0080917A00816080932E
:103A30007A0080917A00806880937A001092C100A9
:103A4000E0910E03F0910F0382E08083E0910A037E
:103A5000F0910B031082E0910C03F0910D0380E1D3
:103A6000808310921603E0911203F091130386E015
:103A70008083E0911003F091110380818061808345
:103A8000E0911003F0911103808188608083E091C0
:103A90001003F0911103808180688083E09110030E
:103AA000F091110380818F7D808361E089E00E9425
:103AB000420860E08AE00E94420861E086E00E94DD
:103AC000420861E087E00E94420860E086E00E94D0
:103AD000CA0787E00E94160818ECE12E12E0F12ECA
:103AE00010E000E0C8010E943825F70181937F01B2
:103AF0000F5F1F4F0B301105A9F78091C8029091FD
:103B0000C902823A904511F00E9483178091C60342
:103B10009091C703892B41F52091AD033091AE03FD
:103B2000C901079697FD0796B3E095958795BA95D5
:103B3000E1F72091AB033091AC031C01229EC00140
:103B4000239E900D329E900D11240E94D1279093B8
:103B5000C7038093C603892B39F464EA7AE08EEFB9
:103B600092E00E945519FFCF0E949B172091AD0350
:103B70003091AE038091AB039091AC03B901213237
:103B800031050CF479C16054710977FF02C06F5F91
:103B90007F4F759567958255910997FD019600E4D1
:103BA00010E022E530E047EC57E0959587950E94BC
:103BB000011282E08093C9038091C4039091C503F0
:103BC000892B09F46CC18CE38093C803109287029F
:103BD000109286021092EA021092E9020E943713B4
:103BE00080E996E0909385028093840281E996E0D3
:103BF00090938302809382028091CF0387FD1EC041
:103C000061E00E94420861E08091CF030E94CA07F0
:103C100061E070E080E090E00E94870A60E08091BF
:103C2000CF030E94CA076AE070E080E090E00E9443
:103C3000870A61E08091CF030E94CA078091C40384
:103C40009091C503892B09F4E9C12091DC033091DF
:103C5000DD034091DE035091DF0360E074E284EF06
:103C600090E00E948A272051310941095109569557
:103C70004795379527952093B80064E083EE95E04B
:103C80000E94E2146091AD03615087EA93E00E94C4
:103C9000971564E08FED95E00E94E2148091C903CE
:103CA00060E1813009F064E187EA93E00E949715B2
:103CB00064E08BED95E00E94E2148FE88093E403CA
:103CC0008091AB039091AC038038910509F0BFC19E
:103CD0008091AD039091AE038034910509F0C7C186
:103CE0008091C903813009F0B0C18FE98093E4036A
:103CF00012E16AED87EA93E00E949715612F87EA47
:103D000093E00E94971561E887EA93E00E94971577
:103D10006091E40387EA93E00E94971569ED87EAD2
:103D200093E00E9497158091C90362E2813009F007
:103D300061EF87EA93E00E94971566E085ED95E0D4
:103D40000E94E2148091C4039091C503892B09F469
:103D500092C12091E0033091E1034091E203509140
:103D6000E30360E074E284EF90E00E948A27205130
:103D70003109410951095695479537952795209363
:103D8000B8008CE08093B8000E949B1781E090E01F
:103D90009093BA038093B9039093B8038093B703C9
:103DA00082E08093BB038093BC038FE090E090930C
:103DB000B4038093B30388E090E09093B6038093BC
:103DC000B5036EE97AE087EA93E00E9455190E94F4
:103DD000F91560ED77E080E090E00E94870A67E8DF
:103DE0007AE08EEF92E00E9455190E946919BB2477
:103DF000B3948FB7F894C0908802D0908902E09075
:103E00008A02F0908B028FBF8EEF92E00E941B0718
:103E1000892B09F4DEC28EEF92E00E94F9068D3004
:103E200099F3E091BC028A3009F0C7C2AE2FB0E02E
:103E3000A457BD4F1C92EE23E1F06FE771E08CE8D0
:103E400092E00E9404258C01009799F061E871E0EE
:103E50000E9402296FE57CE0892B09F432C166E8F3
:103E600071E0C8010E940229892B09F00EC10E944D
:103E700069191092BC02C8CF6052710977FF02C065
:103E80006F5F7F4F759567958357910997FD0196F1
:103E900000E210E023E730E047EE55E086CE61E037
:103EA0008091CD030E94420861E08091CE030E9480
:103EB00042088091CD03082E000C990BFC01EF54B1
:103EC000F34FE491F0E0EE0FFF1FE955F34F25911A
:103ED00034913093D5032093D403FC01ED56F34F76
:103EE000E491E093DA038091CE03082E000C990B45
:103EF000FC01EF54F34FE491F0E0EE0FFF1FE955A2
:103F0000F34FA591B491B093D703A093D603FC01CE
:103F1000ED56F34FE491E093DB038C91E82BEC93A7
:103F20008091C2039091C303892B09F434C01FB759
:103F3000F89480918102811127C0EBEBFCE0849121
:103F4000EDE9FCE09491E82FF0E0EE0FFF1FE55360
:103F5000FA4FA591B491EC91E92321F461E08AE054
:103F60000E94CA0761E08AE00E9442088CB5806125
:103F70008CBD8CB580648CBD61E08DE00E944208F0
:103F800061E08BE00E944208809181028F5F809304
:103F900081021FBF31CE61E08091CB030E944208B5
:103FA00061E08091CC030E9442088091CB03082EEF
:103FB000000C990BFC01EF54F34FE491F0E0EE0F8D
:103FC000FF1FE955F34F259134913093D10320938E
:103FD000D003FC01ED56F34FE491E093D8038091B8
:103FE000CC03082E000C990BFC01EF54F34FE49125
:103FF000F0E0EE0FFF1FE955F34FA591B491B09398
:10400000D303A093D203FC01ED56F34FE491E09368
:10401000D9038C91E095E823EC93EECD8091C20317
:104020009091C303892B31F08091E5039091E603D1
:104030000E94170DE091D603F091D70390818091F3
:10404000DB0380958923808318CE8FEC4FCE80369A
:10405000910569F48091AD039091AE03409739F4D6
:104060008091C903813029F480E18093E40312E058
:1040700040CE8FEAFACFE091D603F091D70380814A
:104080009091DB03892B80837CCE60EC71E0C801CA
:104090000E940229892B09F073C06FE771E090E05C
:1040A00080E00E9404254C016FE771E090E080E021
:1040B0000E9404258114910411F0009739F464E3FF
:1040C0007CE08EEF92E00E945519D3CE0E94E62448
:1040D0008C01019769E17CE08039914090F76AE8B2
:1040E00071E0C4010E940229892B19F51093CB02BB
:1040F0000093CA020E9469192091CC023091CD022E
:104100008091CA029091CB02281739077CF48091E4
:10411000CE029091CF028217930744F42091D002EF
:104120003091D102281739070CF4A3CE69EB7AE05D
:10413000C8CF66EC71E0C4010E940229892B29F4E2
:104140001093CD020093CC02D5CF6EE871E0C4018C
:104150000E940229892B29F41093CF020093CE02EA
:10416000C9CF63E971E0C4010E940229892B29F4B7
:104170001093D1020093D002BDCF68E07CE0A1CFC4
:104180006AE971E0C8010E940229892B11F56FE7E5
:1041900071E090E080E00E9404258C016DEE7BE0F0
:1041A000009709F48ECF6FE971E00E940229892BF4
:1041B00019F41092D3025BCE64EA71E0C8010E9448
:1041C0000229892B19F4B092D30251CE62ED7BE023
:1041D00078CF6BEA71E0C8010E940229892BD1F5E2
:1041E0006FE771E090E080E00E9404258C01009769
:1041F00059F06FE971E00E940229892B29F410928D
:10420000D30266EC7BE05DCFBE016F5F7F4FC801DC
:104210000E94BB176CEA7BE0882309F452CF80919F
:10422000D30262E97BE0882309F44BCF6981609374
:10423000BD0286E00E94CA076AE87BE08EEF92E04A
:104240000E949906898167E87BE081113ACF63E893
:104250007BE037CF6FEA71E0C8010E940229892B09
:1042600009F050C06FE771E090E080E00E94042503
:104270008C016FE771E090E080E00E9404254C0122
:104280000115110511F0892B19F468E67BE019CFAF
:10429000C8010E94E6248C01C4010E94E624980112
:1042A0002F51310969E47BE02A36334108F009CF08
:1042B0009C01215031096DE27BE02838334108F040
:1042C00000CF2FB7F89440918802509189026091F5
:1042D0008A0270918B022FBF092E000CAA0BBB0B18
:1042E000840F951FA61FB71F8093C4029093C50229
:1042F000A093C602B093C702C8010E94730865E28A
:104300007BE0DFCE64EB71E0C8010E940229892BBB
:10431000E1F46FE771E090E080E00E940425BE01C7
:104320006F5F7F4F0E94BB176FE07BE0882309F42B
:10433000C8CE89818093D202882309F498CD87E082
:104340000E9416081092DC0292CD69EB71E0C80160
:104350000E940229892B01F582EA90E59093C90217
:104360008093C802E8EC8E2EE2E09E2E10E000E082
:10437000F401A1904F01C8010E943825A81621F030
:104380006A2DC8010E9440250F5F1F4F0B30110599
:1043900079F766E07BE095CE6EEB71E0C8010E9494
:1043A000022962EF7AE0892B09F08BCE1091D202BC
:1043B0000E9483171093D2025ACDEF3208F024CD19
:1043C00091E09E0F9093BC02F0E0E457FD4F808394
:1043D0001BCD8091E5029091E602A091E702B09199
:1043E000E80216012701281A390A4A0A5B0AD20193
:1043F000C101C297A105B10508F4A1C0C092E502B0
:10440000D092E602E092E702F092E80260E089E0F2
:104410000E94CA0783E090E00197F1F761E089E02C
:104420000E94CA0783E290E00197F1F760E089E01B
:104430000E94CA07EDE9FCE06491EBEBFCE084919B
:10444000E82FF0E0EE0FFF1FE959F34F85919491AB
:1044500000E315E720E030E0462F0E94101C6115B4
:1044600071058105910509F4A3C16F5F7F4F8F4FDF
:104470009F4F9F70611571058105910509F498C1E1
:104480000E94632628E23EE74CE05DE30E94182785
:1044900020E030E040E05FE30E9418272B013C0160
:1044A000409200015092010160920201709203015A
:1044B0006091CA027091CB02072E000C880B990BF9
:1044C0000E9463269B01AC01C301B2010E94132725
:1044D00018160CF075C11092E4021092E3020091DC
:1044E000E3021091E4028091E1029091E202081748
:1044F000190789F01093E2020093E102C092DD02F5
:10450000D092DE02E092DF02F092E0021092DC0232
:1045100087E00E9416088091D3026091BD0281114C
:104520009BC10230110509F49FC108F494C1033006
:10453000110509F4B0C10430110509F4BFC180911F
:10454000C4029091C502A091C602B091C702009723
:10455000A105B105D1F0C816D906EA06FB0650F14F
:104560001092C4021092C5021092C6021092C702A5
:1045700087E00E941608C092DD02D092DE02E0922F
:10458000DF02F092E0021092DC029091DC02809156
:10459000D202811108C04091C2025091C30241155C
:1045A000510509F09EC1992329F087E00E94160861
:1045B0001092DC028091D8029091D902A091DA0287
:1045C000B091DB02A7019601281B390B4A0B5B0B4C
:1045D000DA01C90184369105A105B10508F47DC051
:1045E000C092D802D092D902E092DA02F092DB02B5
:1045F0000E949B17B092BB03B092BC031092B4030D
:104600001092B3031092B6031092B50360E87CE0F9
:1046100087EA93E00E949906609000017090010182
:10462000809002019090030120E030EC49E754E4CF
:10463000C401B3010E9413276CE77CE087FF09C027
:1046400020E0B401A30187EA93E00E946F1868E7B5
:104650007CE087EA93E00E94551982E08093BB03D7
:104660008093BC031092B4031092B30380E190E0F6
:104670009093B6038093B5038091E3029091E40296
:104680008430910508F077C1880F991FFC01E55F20
:10469000FE4F608171816115710521F087EA93E019
:1046A0000E94E0178091D302882309F467C1B09279
:1046B000BB03B092BC0388E690E09093B403809370
:1046C000B3031092B6031092B50364E77CE087EA67
:1046D00093E00E9499060E94F9158091D40290916E
:1046E000D502A091D602B091D70216012701281A4F
:1046F000390A4A0A5B0AD201C10184369105A10533
:10470000B10508F448C0C092D402D092D502E0921C
:10471000D602F092D7026BE87CE08EEF92E00E9426
:1047200099062AE0B701A6018EEF92E00E94EF17EA
:1047300060E28EEF92E00E9492064091000150915B
:104740000101609102017091030121E08EEF92E07E
:104750000E946F1860E28EEF92E00E9492068091B4
:10476000E3029091E4028430910508F01DC1880FA6
:10477000991FFC01E55FFE4F608171816115710534
:1047800021F08EEF92E00E94E01766E771E08EEF75
:1047900092E00E94E01780E090E0892B09F429CB99
:1047A0000E942707882309F422CB0E9400001FCB18
:1047B000412C50EC552E59E7652E54E4752E70CEE1
:1047C0006091CC027091CD02072E000C880B990BE2
:1047D0000E9463269B01AC01C301B2010E94132712
:1047E00018163CF481E090E09093E4028093E30299
:1047F00076CE6091CE027091CF02072E000C880B0E
:10480000990B0E9463269B01AC01C301B2010E9477
:10481000132718161CF482E090E0E6CF6091D002D6
:104820007091D102072E000C880B990B0E94632611
:104830009B01AC01C301B2010E941327181644F476
:1048400043E0242E312C3092E4022092E30247CE42
:1048500084E090E0C9CF60E086E00E94CA07109231
:10486000C3021092C2026BCE61E086E00E94CA07CA
:1048700088EE93E09093C3028093C20284E690E0B6
:104880009093C1028093C00280E991E09093BF02AF
:104890008093BE0254CE61E086E00E94CA078CED90
:1048A00095E09093C3028093C20284E690E09093D7
:1048B000C1028093C00286E990E0E8CF61E086E023
:1048C0000E94CA0780ED97E09093C3028093C202D2
:1048D0001092C1021092C0021092BF021092BE024A
:1048E0002ECE0091C0021091C1020115110571F484
:1048F0006091BE027091BF02672B41F491115ACEB4
:10490000CA010E947308B092DC0254CE911104C017
:104910000091BE021091BF026090DD027090DE0235
:104920008090DF029090E0021601270126183708D8
:10493000480859084201310130E020E06016710654
:104940008206930608F436CEC092DD02D092DE02D3
:10495000E092DF02F092E0023324339493259093A7
:10496000DC02992321F0CA010E94730823CE87E05C
:104970000E9416081FCE69E771E090CE8091D202A6
:10498000882309F4A8CEB092BB03B092BC038EE694
:1049900090E09093B4038093B3031092B603109207
:1049A000B50361E77CE093CE69E771E0EACE8BE383
:1049B00091E09093A8038093A7038091C603909100
:1049C000C703009711F00C946D280895FC01882707
:1049D0009927E89421912032E9F3293010F02E3004
:1049E000C8F32B3241F02D3239F4689404C00E9490
:1049F0003025820F911D219120532A30C0F31EF4DF
:104A0000909581959F4F089547EE53E00E940925A8
:104A10000895FA01A191B081009719F41097E1F07F
:104A2000CD01DC01CD010D90002011F4C00113C0B7
:104A3000FB012191222319F02015D9F7F3CFFB01B7
:104A40002191201519F41E92119606C02223C1F758
:104A50000D900020A1F7D001FA01A193B083089531
:104A60007AE0979F902D879F802D910D11240895B6
:104A7000F999FECF92BD81BDF89A992780B5089526
:104A8000262FF999FECF1FBA92BD81BD20BD0FB66A
:104A9000F894FA9AF99A0FBE019608955058BB27D8
:104AA000AA270E9466250C94D9260E94CB2638F0AE
:104AB0000E94D22620F039F49F3F19F426F40C947A
:104AC000C8260EF4E095E7FB0C94C226E92F0E945D
:104AD000EA2658F3BA17620773078407950720F090
:104AE00079F4A6F50C940C270EF4E0950B2EBA2F52
:104AF000A02D0B01B90190010C01CA01A0011124E4
:104B0000FF27591B99F0593F50F4503E68F11A168F
:104B1000F040A22F232F342F4427585FF3CF469520
:104B200037952795A795F0405395C9F77EF41F1642
:104B3000BA0B620B730B840BBAF09150A1F0FF0F0C
:104B4000BB1F661F771F881FC2F70EC0BA0F621FF8
:104B5000731F841F48F4879577956795B795F795E8
:104B60009E3F08F0B0CF9395880F08F09927EE0F7D
:104B70009795879508950E949E2608F481E00895F0
:104B80000E94D4250C94D9260E94D22658F00E9467
:104B9000CB2640F029F45F3F29F00C94C226511136
:104BA0000C940D270C94C8260E94EA2668F39923DA
:104BB000B1F3552391F3951B550BBB27AA27621719
:104BC0007307840738F09F5F5F4F220F331F441F26
:104BD000AA1FA9F335D00E2E3AF0E0E832D091505A
:104BE0005040E695001CCAF72BD0FE2F29D0660F47
:104BF000771F881FBB1F261737074807AB07B0E88A
:104C000009F0BB0B802DBF01FF2793585F4F3AF08F
:104C10009E3F510578F00C94C2260C940D275F3FFF
:104C2000E4F3983ED4F3869577956795B795F79515
:104C30009F5FC9F7880F911D9695879597F90895FD
:104C4000E1E0660F771F881FBB1F62177307840799
:104C5000BA0720F0621B730B840BBA0BEE1F88F7A8
:104C6000E09508950E94F22688F09F5798F0B92F9A
:104C70009927B751B0F0E1F0660F771F881F991F91
:104C80001AF0BA95C9F714C0B13091F00E940C2700
:104C9000B1E008950C940C27672F782F8827B85F10
:104CA00039F0B93FCCF3869577956795B395D9F7E9
:104CB0003EF490958095709561957F4F8F4F9F4FF3
:104CC0000895E89409C097FB3EF4909580957095FF
:104CD00061957F4F8F4F9F4F9923A9F0F92F96E948
:104CE000BB279395F695879577956795B795F111BD
:104CF000F8CFFAF4BB0F11F460FF1BC06F5F7F4F5A
:104D00008F4F9F4F16C0882311F096E911C077236B
:104D100021F09EE8872F762F05C0662371F096E874
:104D2000862F70E060E02AF09A95660F771F881F43
:104D3000DAF7880F9695879597F90895990F0008E7
:104D4000550FAA0BE0E8FEEF16161706E807F9075D
:104D5000C0F012161306E407F50798F0621B730BF8
:104D6000840B950B39F40A2661F0232B242B252B79
:104D700021F408950A2609F4A140A6958FEF811D1C
:104D8000811D089597F99F6780E870E060E00895BD
:104D90009FEF80EC089500240A9416161706180653
:104DA0000906089500240A9412161306140605062F
:104DB0000895092E0394000C11F4882352F0BB0FC0
:104DC00040F4BF2B11F460FF04C06F5F7F4F8F4F23
:104DD0009F4F089557FD9058440F551F59F05F3F5E
:104DE00071F04795880F97FB991F61F09F3F79F00D
:104DF00087950895121613061406551FF2CF46958F
:104E0000F1DF08C0161617061806991FF1CF869510
:104E10007105610508940895E894BB2766277727F4
:104E2000CB0197F908950E949E2608F48FEF08950C
:104E30000E942B270C94D9260E94CB2638F00E9482
:104E4000D22620F0952311F00C94C2260C94C8268B
:104E500011240C940D270E94EA2670F3959FC1F34C
:104E6000950F50E0551F629FF001729FBB27F00D18
:104E7000B11D639FAA27F00DB11DAA1F649F66276D
:104E8000B00DA11D661F829F2227B00DA11D621FBC
:104E9000739FB00DA11D621F839FA00D611D221F76
:104EA000749F3327A00D611D231F849F600D211D5A
:104EB000822F762F6A2F11249F5750409AF0F1F0DD
:104EC00088234AF0EE0FFF1FBB1F661F771F881F46
:104ED00091505040A9F79E3F510580F00C94C22696
:104EE0000C940D275F3FE4F3983ED4F386957795B5
:104EF0006795B795F795E7959F5FC1F7FE2B880FEC
:104F0000911D9695879597F908950E949E26880B86
:104F1000990B0895A1E21A2EAA1BBB1BFD010DC01F
:104F2000AA1FBB1FEE1FFF1FA217B307E407F50759
:104F300020F0A21BB30BE40BF50B661F771F881F35
:104F4000991F1A9469F760957095809590959B01CB
:104F5000AC01BD01CF010895052E97FB1EF400940E
:104F60000E94C32757FD07D00E948A2707FC03D061
:104F70004EF40C94C32750954095309521953F4FA2
:104F80004F4F5F4F089590958095709561957F4F35
:104F90008F4F9F4F0895EE0FFF1F0590F491E02D66
:104FA00009940F931F93CF93DF938230910510F4F0
:104FB00082E090E0E091EB03F091EC0330E020E040
:104FC000B0E0A0E0309799F42115310509F44AC00A
:104FD000281B390B24303105D8F58A819B81611556
:104FE000710589F1FB0193838283FE0111C0408129
:104FF00051810281138148175907E0F0481759077A
:1050000099F4109761F012960C93129713961C93D3
:105010003296CF01DF91CF911F910F9108950093A8
:10502000EB031093EC03F4CF2115310551F0421737
:10503000530738F0A901DB019A01BD01DF01F80136
:10504000C1CFEF01F9CF9093EC038093EB03CDCF69
:10505000FE01E20FF31F81939193225031093983AE
:105060002883D7CF2091E9033091EA03232B41F421
:1050700020910701309108013093EA032093E9035E
:1050800020910501309106012115310541F42DB71C
:105090003EB74091090150910A01241B350BE09164
:1050A000E903F091EA03E217F307A0F42E1B3F0B8C
:1050B0002817390778F0AC014E5F5F4F241735078A
:1050C00048F04E0F5F1F5093EA034093E90381932A
:1050D00091939FCFF0E0E0E09CCFCF93DF930097D8
:1050E000E9F0FC01329713821282A091EB03B09198
:1050F000EC03ED0130E020E01097A1F42081318134
:10510000820F931F2091E9033091EA032817390792
:1051100009F061C0F093EA03E093E903DF91CF91D6
:105120000895EA01CE17DF07E8F54A815B819E0109
:1051300041155105B1F7E901FB83EA834991599182
:10514000C40FD51FEC17FD0761F480819181029691
:10515000840F951FE90199838883828193819B83C2
:105160008A83F0E0E0E012968D919C91139700976E
:10517000B9F52D913C911197CD010296820F931FA5
:105180002091E9033091EA032817390739F630975F
:1051900051F51092EC031092EB03B093EA03A09345
:1051A000E903BCCFD383C28340815181840F951F13
:1051B000C817D90761F44E5F5F4F88819981480F06
:1051C000591F518340838A819B8193838283211558
:1051D000310509F0B0CFF093EC03E093EB039ECFE1
:1051E000FD01DC01C0CF13821282D7CF81E090E0B5
:1051F000F8940C941529DC0101C06D934150504086
:10520000E0F70895FB01DC018D9181341CF08B35B2
:105210000CF4805E619161341CF06B350CF4605EBF
:10522000861B611189F3990B089516E0C4E6D6E058
:1052300004C0FE010E94CB272196C536D107C9F7CD
:04524000F894FFCF10
:1052440000C07944FF0000ED0380008A01C6018E8E
:1052540001C401000000005D07BD06EA06AA071BA1
:1052640007F9060D0700000000CC139F1380178F69
:105274000698138513761300000000550FBD0680B1
:10528400170F13600C8F06FA11D211EE11E211629E
:10529400128F061B0D2A17D00B190C1B11FE10863A
:1052A4001027104F4E004F4646006E616E00696E27
:1052B40066006F7666000D0A0053544F502100209B
:1052C4000050494E47004745540046415200474F5D
:1052D4004F440056434C4F5345004D4F4445004105
:1052E40055544F004D414E55414C004C45440042ED
:1052F400555A5A004D5554450053415645005245A0
:0C53040053455400562E434C4F534500B7
:00000001FF
