:100000000C9422010C944A010C944A010C944A016C
:100010000C944A010C944A010C944A010C944A0134
:100020000C944A010C944A010C944A010C944A0124
:100030000C944A010C944A010C944A010C944A0114
:100040000C9438070C944A010C9406070C94E006B3
:100050000C944A010C944A010C944A010C944A01F4
:100060000C944A010C944A01206661696C733D004E
:1000700020686D61783D0020686D696E3D002074D8
:100080006D61783D0020746D696E3D002068696780
:10009000683D004F4B20434647206C6F773D000082
:1000A000000000240027002A002320666972737470
:1000B0002072656164696E672074616B657320618D
:1000C00020636F75706C65206F66207365636F6E5B
:1000D0006473000A232074656D705F7365726961D3
:1000E0006C2072656164790045525220756E6B6EAA
:1000F0006F776E20636F6D6D616E64004F4B2053A0
:1001000041564544004F4B205045414B5320636CB2
:1001100065617265640023207761726E206869678B
:1001200068206973206E6F742061626F7665206C41
:100130006F772C20434F4D46592077696C6C206EA9
:10014000657665722062652072656163686564002A
:1001500045525220756E6B6E6F776E2073657474A6
:10016000696E67004552522076616C7565206F7527
:1001700074206F662072616E6765202D31302E2EDF
:1001800036300045525220757361676520534554DF
:10019000203C4C4F577C484947483E203C646567AB
:1001A00072656573433E004F4B20504F4E4700230E
:1001B0002073656E736F72206261636B002320731E
:1001C000656E736F72206E6F7420616E73776572E7
:1001D000696E672C20636865636B207468652044D2
:1001E0004154412077697265206F6E20443200547B
:1001F000200000000000250028002B00000000085F
:1002000000020100000304070000000000000000DD
:100210000000000023002600290004040404040454
:1002200004040202020202020303030303030102A5
:100230000408102040800102040810200102040874
:100240001020820711241FBECFEFD8E0DEBFCDBF44
:1002500022E0AEE7B1E001C01D92A138B207E1F79C
:1002600011E0A0E0B1E0E4EDFDE102C005900D92E7
:10027000AE37B107D9F711E0C2E2D1E004C021974F
:10028000FE010E94CF0EC132D107C9F70E94CF07ED
:100290000C94E80E0C940000CF92DF92EF92FF9244
:1002A000CF93DF93B0917302A0E08111AB2F8091C7
:1002B000740290E0880F991FAC01405F5D4FC090C1
:1002C0007902D0907A02E0907B02F0907C0230E0DC
:1002D00020E0FA01C591D491E881B90190E080E075
:1002E000EB23EA130AC02F5F3F4F6C157D058E0587
:1002F0009F0578F36FEF7FEFCB01DF91CF91FF90F8
:10030000EF90DF90CF900895AF92BF92CF92DF929F
:10031000EF92FF920F931F93CF93DF936C017B01BA
:100320008B01040F151FEB015E01AE18BF08C0174B
:10033000D10759F06991D601ED91FC910190F081BE
:10034000E02DC6010995892B79F7C501DF91CF9181
:100350001F910F91FF90EF90DF90CF90BF90AF90E3
:100360000895FC01538D448D252F30E0842F90E0BB
:10037000821B930B541710F0CF96089501970895A0
:10038000FC01918D828D981761F0A28DAE0FBF2F69
:10039000B11D5D968C91928D9F5F9F73928F90E0BF
:1003A00008958FEF9FEF0895FC01918D828D98172E
:1003B00031F0828DE80FF11D858D90E008958FEF6B
:1003C0009FEF0895FC01918D228D892F90E0805C34
:1003D0009F4F821B91098F73992708958FEC91E0AD
:1003E0000E94E20121E0892B09F420E0822F089588
:1003F00080E090E0892B29F00E94EE0181110C949D
:1004000000000895FC01A48DA80FB92FB11DA35AB7
:10041000BF4F2C91848D90E001968F739927848F24
:10042000A689B7892C93A089B1898C918370806447
:100430008C93938D848D981306C00288F389E02DE8
:1004400080818F7D80830895EF92FF920F931F9399
:10045000CF93DF93EC0181E0888F9B8D8C8D981377
:100460001AC0E889F989808185FF15C09FB7F89483
:10047000EE89FF896083E889F989808183708064CF
:1004800080839FBF81E090E0DF91CF911F910F911A
:10049000FF90EF900895F62E0B8D10E00F5F1F4F29
:1004A0000F731127E02E8C8D8E110CC00FB607FC38
:1004B000FACFE889F989808185FFF5CFCE010E94C6
:1004C0000202F1CFEB8DEC0FFD2FF11DE35AFF4F30
:1004D000F0829FB7F8940B8FEA89FB898081806254
:1004E000CFCF0F931F93CF93DF938C01D0E0C0E069
:1004F000F801EC0FFD1F6491662341F08FEC91E051
:100500000E942402892B11F02196F2CFCE01DF91B7
:10051000CF911F910F910895682F8FEC91E00C946B
:100520002402CF93DF93EC01888D8823B9F0AA8948
:10053000BB89E889F9898C9185FD03C0808186FD9E
:100540000DC00FB607FCF7CF8C9185FFF2CF8081ED
:1005500085FFEDCFCE010E940202E9CFDF91CF915E
:100560000895CF93DF9390E0FC01E25DFD4F24916D
:10057000865E9D4FFC0184918823D1F090E0880F26
:10058000991FFC01E156FF4FA591B491FC01EE507B
:10059000FE4FC591D491623071F49FB7F8943C91AD
:1005A000822F809583238C93E8812E2B28839FBFF5
:1005B000DF91CF9108958FB7F894EC912E2B2C9367
:1005C0008FBFF6CF3FB7F89480917F019091800163
:1005D000A0918101B091820126B5A89B05C02F3F53
:1005E00019F00196A11DB11D3FBFBA2FA92F982F59
:1005F0008827BC01CD01620F711D811D911D42E054
:10060000660F771F881F991F4A95D1F708958F921B
:100610009F92AF92BF92CF92DF92EF92FF924B01E7
:100620005C010E94E2026B017C010E94E2026C19F3
:100630007D098E099F09683E734081059105A8F3E5
:1006400021E0821A9108A108B10888EEC80E83E063
:10065000D81EE11CF11C81149104A104B10429F7F6
:10066000FF90EF90DF90CF90BF90AF909F908F90D2
:1006700008958F929F92AF92BF92EF92FF920F9345
:100680001F93CF93DF93CDB7DEB7C054D1400FB6E1
:10069000F894DEBF0FBECDBF2FB7F8948091CB0189
:1006A0009091CC01A091CD01B091CE012FBF40918E
:1006B00075025091760260917702709178028C01F8
:1006C0009D01041B150B260B370BB901A801403DFA
:1006D000574061057105A0F480917D02C05CDE4F3A
:1006E0000FB6F894DEBF0FBECDBFDF91CF911F9143
:1006F0000F91FF90EF90BF90AF909F908F900895D3
:100700008093750290937602A0937702B09378025B
:100710001092700210926F0210926E0210926D028F
:1007200010926C0262E0809171020E94B10261E05D
:1007300070E080E090E00E94070361E08091710228
:100740000E94B1028091710290E0FC01E450FE4FE2
:100750002491FC01E25DFD4F3491FC01E65EFD4F0A
:10076000E491EE23D9F0222359F0233009F44BC051
:1007700008F03EC0213009F44CC0223009F44DC0CD
:10078000F0E0EE0FFF1FEE50FE4FA591B4918FB732
:10079000F894EC9130953E233C938FBF8091720288
:1007A0008551823008F046C08BE291E10197F1F764
:1007B00062E0809171020E94B10280917E0290E01D
:1007C0008230910538F0880F991F880F991F05977F
:1007D0000197F1F7F89480E00E944C016F3F7F4F42
:1007E0008F4F9F4F71F510927D02789480E076CF05
:1007F0002730B1F02830D1F0243009F0C1CF8091FA
:1008000080008F7D03C0809180008F77809380006F
:10081000B7CF84B58F7784BDB3CF84B58F7DFBCF41
:100820008091B0008F778093B000AACF8091B00004
:100830008F7DF9CF64E170E080E090E00E940703D3
:10084000B7CF81E00E944C016F3F7F4F8F4F9F4F8A
:1008500051F2CE0101967C015E019FEBA91A9EEF39
:10086000B90A870180E00E944C01F801608371831E
:100870008283938381E00E944C01F8016483758335
:1008800086839783085F1F4FA016B10659F77894A7
:1008900030E020E0F70180809180A280B380448125
:1008A000558166817781FFEF8F169F06AF06BF06E1
:1008B00031F04F3F0FEF50076007700719F41092A7
:1008C0007D0294CFF90183E0F595E7958A95E1F7EC
:1008D000E459FD4F8081880F84169506A606B70659
:1008E00018F180832F5F3F4F18E0E10EF11C283292
:1008F000310581F64091700220916C0280916D0269
:10090000280F3327331F80916E02280F311D8091ED
:100910006F02820F932F911D99274817190679F6B8
:1009200081E080937D02DACE8160DBCFCF92DF92CF
:10093000EF92FF92CF93DF936B017C01C091850111
:10094000D0918601BE0165507109072E000C880BFD
:10095000990B0E94860DA70196010E94360E18166B
:10096000CCF1BE01DD0F880B990B0E94860DA7010B
:1009700096010E94360E181684F1C0918701D0911D
:100980008801BE010D2E000C880B990B0E94860D6C
:100990009B01AC01C701B6010E94DE0C181604F5DC
:1009A000BE016B5F7F4F072E000C880B990B0E94D6
:1009B000860D9B01AC01C701B6010E94DE0C181622
:1009C00094F485E090E0DF91CF91FF90EF90DF907D
:1009D000CF90089581E090E0F6CF82E090E0F3CFF1
:1009E00083E090E0F0CF84E090E0EDCFFC01019057
:1009F0000020E9F73197AF01481B590BBC018FEC80
:100A000091E00C948401CF93DF930E947102EC017A
:100A10008CE291E00E94F6048C0F9D1FDF91CF9134
:100A200008958F929F92AF92BF920F931F93CF938F
:100A3000DF93CDB7DEB7A1970FB6F894DEBF0FBE38
:100A4000CDBF19A2423008F44AE08E010F5D1F4F5E
:100A5000842E912CB12CA12CA50194010E94AD0EE5
:100A6000E62FB901CA01EA30F4F4E05DD801EE9353
:100A70008D01232B242B252B79F790E080E0109714
:100A800019F0CD010E94F604A1960FB6F894DEBFCE
:100A90000FBECDBFDF91CF911F910F91BF90AF904F
:100AA0009F908F900895E95CE1CF4F925F926F9293
:100AB0007F928F929F92AF92BF92CF92DF92EF92EE
:100AC000FF920F931F93CF936B017C01742EAC01A7
:100AD0009B010E94A80E882399F08FE291E0CF91AC
:100AE0001F910F91FF90EF90DF90CF90BF90AF904C
:100AF0009F908F907F906F905F904F900C94F60432
:100B000046015701E894B7F82FEF3FEF4FE75FE753
:100B1000C501B4010E94A80E81110DC02FEF3FEF57
:100B20004FE75FE7C501B4010E94DE0C18161CF404
:100B300083E391E0D4CF2FEF3FEF4FE75FE4C701AE
:100B4000B6010E94360E18161CF487E391E0C7CF59
:100B50002FEF3FEF4FE75FECC701B6010E94DE0CBD
:100B600087FDF3CF20E030E0A901C701B6010E9464
:100B7000DE0C10E000E087FF08C08DE20E948C02CE
:100B80008C01F7FAF094F7F8F094C0E060E070E0C0
:100B900080E09FE37C1641F020E030E040E251E449
:100BA0000E94E30CCF5FF6CFA70196010E94720C62
:100BB0002B013C010E94550D4B015C014AE00E9453
:100BC00011057C01E00EF11ECC23B1F1C501B40189
:100BD0000E94840D9B01AC01C301B2010E94710C03
:100BE0004B015C018EE20E948C02E80EF91EC1509E
:100BF00018F120E030E040E251E4C501B4010E9468
:100C00003B0E2B013C010E94550D4B01B12CA12C38
:100C10004AE0C501B4010E941105E80EF91EC501A4
:100C2000B4010E94840D9B01AC01C301B2010E947A
:100C3000710C4B015C01DBCFC701CF911F910F916C
:100C4000FF90EF90DF90CF90BF90AF909F908F90EC
:100C50007F906F905F904F900895CF92DF92EF92C8
:100C6000FF92CF93DF936C01990FEE08FF08F7FE18
:100C700017C08DE20E948C02EC0166277727CB011A
:100C80006C197D098E099F094AE00E9411058C0F9D
:100C90009D1FDF91CF91FF90EF90DF90CF9008954F
:100CA0004AE0C701B601DF91CF91FF90EF90DF904E
:100CB000CF900C94110583E990E00E94710280911D
:100CC0008501909186010E942D068CE890E00E949B
:100CD000710280918701909188010E942D0685E81C
:100CE00090E00E9471028091C201882309F458C0EB
:100CF00060910C0170910D0180910E0190910F0196
:100D000041E00E9455058EE790E00E9471028091BB
:100D1000C201882309F448C060910801709109015B
:100D200080910A0190910B0141E00E94550587E7EF
:100D300090E00E9471028091C2018823C9F1609104
:100D4000040170910501809106019091070141E035
:100D50000E94550580E790E00E9471028091C201D7
:100D6000882351F16091000170910101809102018D
:100D70009091030141E00E94550588E690E00E94B1
:100D800071026091B2017091B3018091B4019091B0
:100D9000B5014AE00E9411058CE291E00C94F60442
:100DA00060E070E0CB01ACCF60E070E0CB01BCCF85
:100DB00060E070E0CB01CBCF60E070E0CB01DACF38
:100DC0001F920F920FB60F9211242F933F934F93C0
:100DD0005F936F937F938F939F93AF93BF93EF93A3
:100DE000FF938FEC91E00E940202FF91EF91BF917F
:100DF000AF919F918F917F916F915F914F913F91B3
:100E00002F910F900FBE0F901F9018951F920F9269
:100E10000FB60F9211242F938F939F93EF93FF930D
:100E2000E091DF01F091E0018081E091E501F09136
:100E3000E60182FD1BC090818091E8018F5F8F7376
:100E40002091E901821741F0E091E801F0E0E153DF
:100E5000FE4F958F8093E801FF91EF919F918F91C5
:100E60002F910F900FBE0F901F9018958081F4CF97
:100E70001F920F920FB60F9211242F933F938F93CF
:100E80009F93AF93BF938091CB019091CC01A091A0
:100E9000CD01B091CE0130917E0123E0230F2D379B
:100EA00058F50196A11DB11D20937E018093CB01C1
:100EB0009093CC01A093CD01B093CE0180917F019E
:100EC00090918001A0918101B09182010196A11DB4
:100ED000B11D80937F0190938001A0938101B09315
:100EE0008201BF91AF919F918F913F912F910F9070
:100EF0000FBE0F901F90189526E8230F0296A11D94
:100F0000B11DD2CFEFECF1E01382128288EE93E0B4
:100F1000A0E0B0E084839583A683B7838EE191E05F
:100F20009183808385EC90E09587848784EC90E0C2
:100F30009787868780EC90E0918B808B81EC90E0A6
:100F4000938B828B82EC90E0958B848B86EC90E087
:100F5000978B868B118E128E138E148EACE6B2E0B8
:100F600082E015968C9315978BE016968C931697C6
:100F7000E0E3F2E0E4911796EC931797ECE1F2E0EE
:100F8000E4911896EC93189740E85EE360E070E017
:100F90001D964D935D936D937C935097089578942F
:100FA00084B5826084BD84B5816084BD85B582606E
:100FB00085BD85B5816085BD80916E00816080931F
:100FC0006E00109281008091810082608093810088
:100FD0008091810081608093810080918000816098
:100FE000809380008091B10084608093B1008091F3
:100FF000B00081608093B00080917A00846080931B
:101000007A0080917A00826080937A0080917A00E1
:10101000816080937A0080917A00806880937A0062
:101020001092C100E091DF01F091E00182E0808345
:10103000E091DB01F091DC011082E091DD01F091A3
:10104000DE0180E180831092E701E091E301F091FD
:10105000E40186E08083E091E101F091E20180818A
:1010600080618083E091E101F091E20180818860FC
:101070008083E091E101F091E201808180688083CA
:10108000E091E101F091E20180818F7D808303E8AE
:1010900011E0D0E0C0E0CE010E945B0CD8018D933E
:1010A0008D012196C630D105B1F7809183019091D1
:1010B000840181319E4791F081E19EE79093840104
:1010C0008093830184E190E0909386018093850171
:1010D0008AE190E0909388018093870162E080919B
:1010E00071020E94B1022FB7F8948091CB019091C8
:1010F000CC01A091CD01B091CE012FBF805D974072
:10110000A109B1098093750290937602A0937702AA
:10111000B093780287E380937E0283ED90E00E9493
:10112000030589EA90E00E9403050E945B0661E1E5
:10113000262E6EE7362E8FB7F8944090CB01509054
:10114000CC016090CD017090CE018FBF8FEC91E00B
:101150000E94E201892B09F449C18FEC91E00E94C1
:10116000C0018D3099F3E091B1018A3009F032C1AC
:10117000AE2FB0E0A757BE4F1C92EE23E9F060E41B
:1011800071E089E891E00E94270CEC010097A1F042
:1011900062E471E00E94D50E892B29F487EA91E080
:1011A0000E94030509C067E471E0CE010E94D50EDC
:1011B000892B29F40E945B061092B101C7CF61E62A
:1011C00071E0CE010E94D50E892B09F05CC060E46D
:1011D00071E090E080E00E94270C6C0160E471E017
:1011E00090E080E00E94270CC114D10411F0009718
:1011F00019F483E891E0D4CF0E94090C7C010A968F
:101200008734910518F084E691E0CACF6BE471E071
:10121000C6010E94D50E892B39F5F0928601E09225
:1012200085012091870130918801809185019091FD
:1012300086018217930724F086E191E00E9403055E
:101240008091C201882309F4B5CF6091BE017091ED
:10125000BF018091C0019091C1010E9496049093BA
:10126000B9018093B801A6CF6FE471E0C6010E9476
:10127000D50E892B29F4F0928801E0928701D1CF15
:1012800080E591E08DCF64E571E0CE010E94D50E3E
:10129000892B09F061C020E030EC49E754E4209349
:1012A00004013093050140930601509307012093F8
:1012B0000C0130930D0140930E0150930F0180E01B
:1012C00090ECA9E7B4EC8093000190930101A09306
:1012D0000201B09303018093080190930901A09348
:1012E0000A01B0930B018091C201882381F18091A2
:1012F000BE019091BF01A091C001B091C101809346
:10130000080190930901A0930A01B0930B01809307
:101310000C0190930D01A0930E01B0930F018091E9
:10132000BA019091BB01A091BC01B091BD01809325
:10133000000190930101A0930201B09303018093F7
:10134000040190930501A0930601B093070185E085
:1013500091E00E9403052ECF6AE571E0CE010E9464
:10136000D50E892BE1F43092840120928301C3E8E9
:10137000D1E0F12CE12C1991C7010E945B0C1817E8
:1013800021F0612FC7010E94630C9FEFE91AF90A4F
:10139000A6E0EA16F10479F78CEF90E001CF6FE553
:1013A00071E0CE010E94D50E892B89F43092840120
:1013B00020928301E4E1F0E0F0938601E09385015F
:1013C0002AE130E0309388012093870139CF88EEFD
:1013D00090E0E6CEE73208F0B9CE91E09E0F909310
:1013E000B101F0E0E757FE4F8083B0CE8091C70196
:1013F0009091C801A091C901B091CA01A3019201C5
:10140000281B390B4A0B5B0BDA01C901843C99405C
:10141000A105B10508F4DAC04092C7015092C80195
:101420006092C9017092CA010E943903882349F071
:10143000809172028B3028F08D3050F085518230CF
:10144000E8F1812C912C50ECA52E5FE7B52E1EC043
:1014500060916D0270E090E080E00E94860D2DECBE
:101460003CEC4CEC5DE30E943B0E6B017C01609117
:101470006C0270E090E080E00E94860D9B01AC0160
:10148000C701B6010E94720C4B015C010E94390336
:10149000C091B601D091B701882309F475C080913D
:1014A00072028C3009F407C1D8F48B3091F1C12C51
:1014B000D12C30ECE32E3FE7F32E55C060916C0247
:1014C00070916D0276276727762790E080E00E9472
:1014D000840D2DEC3CEC4CEC5DE30E943B0ED4CF34
:1014E0008551823020F710916E02612F70E0762FC7
:1014F000662766277F7780916F02682B90E080E0F7
:101500000E94840D2DEC3CEC4CEC5DE30E943B0E04
:10151000EEC060916E0270E090E080E00E94840D69
:101520006B017C0110916F0217FF0AC0AC019B0197
:1015300060E070E080E89FEB0E94710C6B017C0121
:101540001F70612F70E090E080E00E94860D2DEC0E
:101550003CEC4CEC5DE30E943B0EA70196010E941F
:10156000720C6B017C01A5019401C501B4010E94BC
:10157000A80E811109C0A7019601C701B6010E94FA
:10158000A80E882309F4BCC02196D093B701C0935C
:10159000B6018091B2019091B301A091B401B091D4
:1015A000B5010196A11DB11D8093B2019093B301C5
:1015B000A093B401B093B5011092B9011092B80193
:1015C000239721F48DEB91E00E9403058091C301E4
:1015D0009091C401A091C501B091C601A3019201EF
:1015E000281B390B4A0B5B0BDA01C901843C99407B
:1015F000A105B10508F452C04092C3015092C40144
:101600006092C5017092C6018FEE91E00E94710256
:101610004AE0C301B2010E94110580E20E948C02DF
:101620008091C201882309F4E9C06091BE017091E4
:10163000BF018091C0019091C10141E00E94550518
:1016400080E20E948C028091C201882309F4DAC0F2
:101650006091BA017091BB018091BC019091BD0174
:1016600041E00E94550580E20E948C028091B80101
:101670009091B90101978530910508F0C7C0880F96
:10168000991FFC01E05FFE4F80819181009711F06E
:101690000E94F6048CE291E00E94F60480E090E063
:1016A000892B09F448CD0E94EE01882309F443CD2B
:1016B0000E94000040CD10916E02612F70E090E01A
:1016C00080E00E94840D6B017C0160916F026F705D
:1016D00070E090E080E00E94860D2DEC3CEC4CEC3C
:1016E0005DE30E943B0EA70196010E94720C6B0104
:1016F0007C0117FF38CFF7FAF094F7F8F09433CF66
:10170000239720F08FEA91E00E9403051092B70121
:101710001092B601C092BE01D092BF01E092C0010A
:10172000F092C1018092BA019092BB01A092BC01DB
:10173000B092BD0181E08093C201C701B6010E9451
:1017400096049093B9018093B801A7019601609126
:101750000C0170910D0180910E0190910F010E947A
:10176000360E181644F4C0920C01D0920D01E0928E
:101770000E01F0920F01A70196016091080170918E
:10178000090180910A0190910B010E94DE0C87FFF4
:1017900008C0C0920801D0920901E0920A01F092BB
:1017A0000B01A501940160910401709105018091E4
:1017B0000601909107010E94360E181644F480929B
:1017C000040190920501A0920601B0920701A501C3
:1017D000940160910001709101018091020190914A
:1017E00003010E94DE0C87FFF1CE809200019092EF
:1017F0000101A0920201B0920301E8CE60E070E026
:10180000CB011BCF60E070E0CB012ACF8BE391E0EE
:101810003FCFFC0188279927E89421912032E9F3F2
:10182000293010F02E30C8F32B3241F02D3239F42C
:10183000689404C00E94530C820F911D2191205383
:101840002A30C0F31EF4909581959F4F08954FE77D
:1018500052E00E942C0C0895FA01A191B0810097EA
:1018600019F41097E1F0CD01DC01CD010D900020BD
:1018700011F4C00113C0FB012191222319F020159E
:10188000D9F7F3CFFB012191201519F41E9211967F
:1018900006C02223C1F70D900020A1F7D001FA0164
:1018A000A193B08308957AE0979F902D879F802D14
:1018B000910D11240895F999FECF92BD81BDF89A3A
:1018C000992780B50895262FF999FECF1FBA92BDAA
:1018D00081BD20BD0FB6F894FA9AF99A0FBE019611
:1018E00008955058BB27AA270E94890C0C94FC0D20
:1018F0000E94EE0D38F00E94F50D20F039F49F3F64
:1019000019F426F40C94EB0D0EF4E095E7FB0C941F
:10191000E50DE92F0E940D0E58F3BA176207730701
:101920008407950720F079F4A6F50C942F0E0EF499
:10193000E0950B2EBA2FA02D0B01B90190010C01DF
:10194000CA01A0011124FF27591B99F0593F50F4F7
:10195000503E68F11A16F040A22F232F342F44274F
:10196000585FF3CF469537952795A795F040539547
:10197000C9F77EF41F16BA0B620B730B840BBAF017
:101980009150A1F0FF0FBB1F661F771F881FC2F782
:101990000EC0BA0F621F731F841F48F48795779596
:1019A0006795B795F7959E3F08F0B0CF9395880F50
:1019B00008F09927EE0F9795879508950E94C10D1D
:1019C00008F481E008950E94F70C0C94FC0D0E942D
:1019D000F50D58F00E94EE0D40F029F45F3F29F01C
:1019E0000C94E50D51110C94300E0C94EB0D0E94EB
:1019F0000D0E68F39923B1F3552391F3951B550B05
:101A0000BB27AA2762177307840738F09F5F5F4FD1
:101A1000220F331F441FAA1FA9F335D00E2E3AF010
:101A2000E0E832D091505040E695001CCAF72BD028
:101A3000FE2F29D0660F771F881FBB1F2617370779
:101A40004807AB07B0E809F0BB0B802DBF01FF27AB
:101A500093585F4F3AF09E3F510578F00C94E50D96
:101A60000C94300E5F3FE4F3983ED4F3869577955F
:101A70006795B795F7959F5FC9F7880F911D969564
:101A8000879597F90895E1E0660F771F881FBB1FC0
:101A9000621773078407BA0720F0621B730B840B6D
:101AA000BA0BEE1F88F7E09508950E94150E88F096
:101AB0009F5798F0B92F9927B751B0F0E1F0660F12
:101AC000771F881F991F1AF0BA95C9F714C0B13053
:101AD00091F00E942F0EB1E008950C942F0E672F05
:101AE000782F8827B85F39F0B93FCCF38695779582
:101AF0006795B395D9F73EF490958095709561956B
:101B00007F4F8F4F9F4F0895E89409C097FB3EF495
:101B100090958095709561957F4F8F4F9F4F99233A
:101B2000A9F0F92F96E9BB279395F69587957795B8
:101B30006795B795F111F8CFFAF4BB0F11F460FF78
:101B40001BC06F5F7F4F8F4F9F4F16C0882311F0D0
:101B500096E911C0772321F09EE8872F762F05C0E4
:101B6000662371F096E8862F70E060E02AF09A957F
:101B7000660F771F881FDAF7880F9695879597F974
:101B80000895990F0008550FAA0BE0E8FEEF16160E
:101B90001706E807F907C0F012161306E407F50761
:101BA00098F0621B730B840B950B39F40A2661F0D5
:101BB000232B242B252B21F408950A2609F4A14078
:101BC000A6958FEF811D811D089597F99F6780E885
:101BD00070E060E008959FEF80EC089500240A947F
:101BE0001616170618060906089500240A941216F8
:101BF0001306140605060895092E0394000C11F42B
:101C0000882352F0BB0F40F4BF2B11F460FF04C0D7
:101C10006F5F7F4F8F4F9F4F089557FD9058440F30
:101C2000551F59F05F3F71F04795880F97FB991F3B
:101C300061F09F3F79F087950895121613061406F8
:101C4000551FF2CF4695F1DF08C016161706180685
:101C5000991FF1CF86957105610508940895E89460
:101C6000BB2766277727CB0197F908950E94C10DFE
:101C700008F48FEF08950E944E0E0C94FC0D0E9404
:101C8000EE0D38F00E94F50D20F0952311F00C9424
:101C9000E50D0C94EB0D11240C94300E0E940D0EEA
:101CA00070F3959FC1F3950F50E0551F629FF001AF
:101CB000729FBB27F00DB11D639FAA27F00DB11DC8
:101CC000AA1F649F6627B00DA11D661F829F222751
:101CD000B00DA11D621F739FB00DA11D621F839FD8
:101CE000A00D611D221F749F3327A00D611D231FAE
:101CF000849F600D211D822F762F6A2F11249F57FC
:101D000050409AF0F1F088234AF0EE0FFF1FBB1FFE
:101D1000661F771F881F91505040A9F79E3F5105BD
:101D200080F00C94E50D0C94300E5F3FE4F3983E88
:101D3000D4F3869577956795B795F795E7959F5F67
:101D4000C1F7FE2B880F911D9695879597F90895F9
:101D50000E94C10D880B990B0895A1E21A2EAA1BAF
:101D6000BB1BFD010DC0AA1FBB1FEE1FFF1FA2174B
:101D7000B307E407F50720F0A21BB30BE40BF50B48
:101D8000661F771F881F991F1A9469F760957095D1
:101D9000809590959B01AC01BD01CF010895EE0F98
:101DA000FF1F0590F491E02D0994FB01DC018D915A
:101DB00081341CF08B350CF4805E619161341CF031
:101DC0006B350CF4605E861B611189F3990B0895E5
:041DD000F894FFCFB5
:101DD40000C079C400C0794400C079C400C079440B
:101DE40065016A016F0175017A0100000000240297
:101DF4008401B1019102E201C001D4010D0A006E17
:101E0400616E00696E66006F7666004641494C005B
:101E1400200050494E4700474554004C4F57004856
:101E2400494748005045414B5300534156450052E1
:101E34004553455400434F4C4400434F4F4C0043DB
:0E1E44004F4D4659005741524D00484F540033
:00000001FF
